:020000040000FA
:030000000200D328
:03004B00020ADBCB
:10008300020A9200000080FB1200E2B900030200A2
:10009300CDE490010178C179048002F0A3D8FCD9A2
:1000A300FA9004C1AA82AB839000E57812790180AB
:1000B30015E493A3AC82AD838A828B83F0A3AA82D7
:1000C300AB838C828D83D8E9D9E712049E12008614
:1000D30075D0007581BF75100175110102008B7910
:1000E3000122FF00000000000000000000004900A2
:1000F300000000E0F608A3E0F608A3E0F608A3E09A
:10010300F622E6F008A3E6F008A3E6F008A3E6F07B
:1001130022CAC0E0E6F0A308DAFAD0E0FA222510FA
:1001230010AF08F510400215118008F510400215B4
:1001330011D2AF22C0D0251010AF08F51050020520
:10014300118008F51050020511D2AFD0D02225102E
:10015300F58210AF08F510400215118008F5104024
:10016300021511D2AF851183222510F582E43511D2
:10017300F58322E4732510C582C0E0E51134FFC581
:1001830083C0E0E510C3958224F9F8E4C5A885830C
:1001930011858210C5A8E8CEF0A3E520F0A3780866
:1001A300E608F0A3DEFAEFF0A3E58124FBF8E60806
:1001B300F0A3E608F0A30808E608F0A3E608F0A316
:1001C30015811581D0E0FED0E0F815811581E8C0D6
:1001D300E0EEC0E022851183851082E0A3FEE0A358
:1001E300F5207808E0A3F608DFFAE0A3FFE0A3C058
:1001F300E0E0A3C0E0E0A3C0E0E0A3C0E0E4C5A862
:10020300858210858311C5A8D083D08222C0D025D2
:1002130010C582C0E0E51134FFC583C0E0E510C31B
:10022300958224F310AF0885831185821080088599
:100233008311858210D2AFC8F0A3E9F0A3EAF0A33B
:10024300EBF0A37908E709F0A3D8FAECF0A3EDF0FB
:10025300A3EEF0A3EFF0A3D0E0F0A3D0E0F0A3D09F
:10026300E0F0A3E520F0A3E5F0F0A3228511838558
:100273001082E0C0E0A3E0F9A3E0FAA3E0FBA378D7
:1002830008E0F608A3DFFAE0FCA3E0FDA3E0FEA389
:10029300E0FFA3E0C0E0A3E0C0E0A3E0F5D0A3E06B
:1002A300F520A3E0A3F5F0E4C5A8858311858210AA
:1002B300C5A8D082D083D0E0F8D0E03274028000A9
:1002C300C0E0F404120151D0E012011422D083D013
:1002D30082C5F0E493A3C5F0C395F0F5F0E493A3CE
:1002E300C395F04005E5F0048001E475F002A42510
:1002F30082F582E5F03583F583E493A3C0E0E493CC
:10030300C0E022C082C0837434900102F078017986
:1003130000E82402F582E934011203569419E994A2
:1003230000A2D265D03340E9746590011BF0020945
:100333006DC082C08378007900E8241CF582E9341B
:1003430001120356941AE99400A2D265D03340E90E
:1003530002096DF583E4F0E8240108E93400F9C3E8
:10036300E82274F3120178EAFEEBFF890A8C088D08
:1003730009C2AF9004C6E0FAC3950A50048A0C8000
:1003830002890C750D00780C1202BF9004C7E0FCC3
:10039300A3E0FDEEFA120AF77402120137E50870C2
:1003A30002E50960219004CAE0F83395E0F990046E
:1003B300CDE0FAE8C39AF8E99400F9850882850943
:1003C30083E8F0A3E9F0E49004CBF0D2AF9004C645
:1003D300E0FAC3950A5004EAFB8002AB0AEBFA8EFB
:1003E300828F83E0C394335003020496741A6A60C5
:1003F300030204969004CDE0FA9004CAE0C39AF590
:100403000879021209458E828F83E024CEF509F81C
:100413003395E0F9E82402F582E93401F583E50830
:10042300F07D008D82AA82EE2AF582EF3400F583F7
:10043300E0C0E0E509F83395E0F9E875F01BA4F8AE
:10044300ACF075F01BE9A42CF9EA241BFAE434019F
:10045300FBE82AF582E93BF583D0E0F00D741A6DD1
:1004630070C1E509F83395E0F9E82451F582E934E0
:1004730001F583E508F074016509700674019001C4
:1004830001F079021209729003BEE02401F0A3E0A7
:100493003400F01203347F060201D874FA120121EA
:1004A300E4900101F0120306120334740212016C8A
:1004B3007408F0A37420F0740412016C7418F074BF
:1004C3000512016CE4F08510828511837454F0A346
:1004D3007425F01208FC79011205C779011205BCD5
:1004E30079021205C779021205BC75C90043C90810
:1004F3007B00EB75F01BA42450F582E5F03401F585
:10050300837434F00B74186B70E87B0074332BC066
:10051300E0EB75F01BA42436F582E5F03401F58396
:10052300D0E0F00B74186B70E3851082851183AAF9
:1005330082AB831206B9E9640170031208DF120863
:10054300609004CBE0600DEEFCEFFD791A7A1C7B22
:1005530001120365900101E0605779011209457AA0
:10056300087B00120A0179011209727A087B0012D2
:100573000A01750800120873791BE50889F0A424A1
:1005830036FCE5F03401FD7A6B7B25120751120826
:100593006005087418650870DC120873791A7C0208
:1005A3007D017AFF7BFF120751120860120306E4F4
:1005B300F075C9A075C95080881209727A647B00EE
:1005C300120A012212094580F3C082C083120A7005
:1005D300D2AF79017A3C7B04120A5790043CE0C203
:1005E300E7F06405703879051206AB5004D2F08049
:1005F30002C2F0A2F0E492E09004C9F0900441E05A
:10060300A2E740030206A390043FE0FA9003C0E090
:100613006A60030206A374019003C10206A2E024E8
:10062300F59004C6F090043CE0F91206AB5004D2F6
:10063300F08002C2F0A2F0E492E09004C9F09004CA
:1006430044E0F8A3E0F99004C2E8F0A3E9F09004D1
:10065300C77446F0A37404F09004C6E0F83395E041
:10066300F9E82446F8E93404F988828983E09004A0
:10067300CAF088828983A3E0A2E7501C9004C1E0FA
:10068300FA90043FE06A601090043DE054DF644157
:10069300700674019004CBF090043FE09004C1F025
:1006A300C2AF120A8102096D7A3D7B04120A579088
:1006B300043DE0A2E52274F5120178EAFEEBFF9017
:1006C3006189E04460F074099061FAF074159061F7
:1006D300B2F0E49061AEF0120A81C2AF9003C7EEAC
:1006E300F0A3EFF09004C7E4F0A3F074019003C209
:1006F300F09004CE78081200F69003C37808120134
:100703000575F0059003C7120ACAA3A3A3A3E0A427
:1007130024D490618F120848E8906174F0E99061E5
:1007230075120851E8906172F0E9906173F0A2AF1D
:10073300E492E0FAC2AF9004BD74CCF0A37405F068
:10074300EAA2E092AFD2AF79007F040201D874F637
:10075300120178EAFEEBFF8C088D09890A9003C227
:10076300E0700675E1EC75E1E3E9C3946740037556
:100773000A67906193E0542270F8120A70740B2593
:100783000A9003C9F012083B600478618002784143
:10079300E89003CAF074889003CBF09003C0E09014
:1007A30003CC1208519003CDE8F0A3E9F09003CFF6
:1007B300EEF0A3EF1208489003D1E8F0A3E9F07A32
:1007C3000080208A82A882E50828F582E5093400A2
:1007D300F583E0C0E0E824D3F582E43403F583D065
:1007E300E0F00AEAC3950A40DA740A250AF97AC9DD
:1007F3007B03120A2E120A8175E1E9E591A2E15009
:10080300FA7591FD12083B600FE49003C1F07A4A38
:100813007B021209D0E06004790080027901900321
:10082300C2E0700675E1EF75E1ECE970069003C074
:10083300E004F07F030201D89003C7120ACEA3A3FA
:10084300A3A3A3E022120858E0F8A3E0F9221208B8
:1008530058A3A380F3F09003C7120AD222C082C028
:100863008374019003C2F075E1EC75E1E302096D55
:10087300C082C083E49003C2F075E1EF75E1EC023E
:10088300096D748055C6FA53BEFBE59DA2E550FA87
:10089300E59DA2E240F400740169700774494AF5CA
:1008A300C68005E970028AC6E5C6FAE59EFBEA6BD7
:1008B30070F943BE0422E59EA2E64003790122E9D2
:1008C300700553C67F8008740169700343C680E5D1
:1008D300C6FAE59EFBEA6B70F979002279011209E9
:1008E3009B790212099B790312099B790412099BD4
:1008F3007A327B00120A0180E379001208B9E960B9
:1009030010790112088579001208B9E96003120809
:10091300DF790012088543FE01C29043FE02C291B3
:1009230043FE10C29443FD02C28153F3FD53FDFD08
:10093300438F0253F5FE53FFFE43F70143F340D2C7
:10094300AF22C082C083E91202D001036D095909A5
:100953005D0961096509D2908010D291800CD2940F
:100963008008D28174019004BCF0D083D08222C06D
:1009730082C083E91202D00103990986098A098E8C
:10098300099209C290800FC291800BC2948007C262
:1009930081E49004BCF080D2C082C083E91202D00B
:1009A3000103CE09AF09B609BB09C209639001E58A
:1009B30090801863900280F7639010E590800C6339
:1009C3008002E5809004BCE06401F0809DEBC313DA
:1009D300FBEA13FAEAF8EBF974FF28FA74FF39FB20
:1009E3007400687003740069601300000000000065
:1009F300000000000000000000000080D72274F80F
:100A0300120178EAFEEBFFEEF8EFF974FF28FE74AB
:100A1300FF39FF740068700374006960097AE87B2A
:100A2300031209D080E17F010201D874F712017823
:100A330075E1EE7591FD7C0080108C08EA2508F5C0
:100A430082EB3400F583E0F5D90CECC39940EB7FDE
:100A5300020201D8C082C083800DE5D98A828B83CC
:100A6300F0A3AA82AB8319E970F002096DC082C0BA
:100A7300839061A3E0C2E6F0539AFE02096DC0823F
:100A8300C0839061A3E0D2E6F0439A0102096DC0EE
:100A9300E074F2120210A2AFE492E0FEC2AFE5E905
:100AA300A2E650199004BDE07002A3E0600990042F
:100AB300BD120ACA120176759B0053E9BFEEA2E08C
:100AC30092AF7F0102026F120ACE22120AD222E0F3
:100AD300F8A3E0F583888222C0E074F2120210903A
:100AE30004BFE07002A3E060099004BF120ACA12B7
:100AF300017680CE74F7120178740912016CE0FE5E
:100B0300A3E0FFEAF8EBF980188C828D83E08882FA
:100B13008983F0A3A882A9838C828D83A3AC82AD41
:100B2300838E088F0974FF25081E74FF3509FFE5BE
:0C0B3300087002E50970D27F020201D8B0
:04000005000000D324
:00000001FF
