:020000040000FA
:030000000200D328
:03004B00020B6A3B
:10008300020B2100000080FB1200E2B90003020012
:10009300CDE490010178BF79048002F0A3D8FCD9A4
:1000A300FA9004BFAA82AB839000E57812790180AD
:1000B30015E493A3AC82AD838A828B83F0A3AA82D7
:1000C300AB838C828D83D8E9D9E712054112008670
:1000D30075D0007581BF75100175110102008B7910
:1000E3000122FF00000000000000000000004900A2
:1000F300000000E0F608A3E0F608A3E0F608A3E09A
:10010300F622E6F008A3E6F008A3E6F008A3E6F07B
:1001130022CAC0E0E6F0A308DAFAD0E0FA22C3E488
:1001230098F8E499F91201628026C3E49AFAE49BF1
:10013300FBE920E7E9120162E498F8E499F922C3A4
:10014300E498F8E499F9120162E498F8E499F9C3A0
:10015300E49AFAE49BFB22EB20E7CFE920E7E0B93E
:100163000010BB0008E88AF084F8AAF022E4FBC878
:10017300FA22EB70227B10C833C8C933C933500746
:10018300C39AC3DBF280069A50012ADBEAC833F430
:10019300C8C933F4C9FA2275F008E4C833C8C933AF
:1001A300C933C99AC99B5004C92AC93BD5F0ECFB92
:1001B300C833F4C8E4C9FA22251010AF08F510407B
:1001C3000215118008F51040021511D2AF22C0D0DC
:1001D300251010AF08F510500205118008F51050D6
:1001E300020511D2AFD0D0222510F58210AF08F549
:1001F30010400215118008F51040021511D2AF8589
:100203001183222510F582E43511F58322E4732549
:1002130010C582C0E0E51134FFC583C0E0E510C31B
:10022300958224F9F8E4C5A8858311858210C5A8B1
:10023300E8CEF0A3E520F0A37808E608F0A3DEFA01
:10024300EFF0A3E58124FBF8E608F0A3E608F0A3AA
:100253000808E608F0A3E608F0A315811581D0E0AD
:10026300FED0E0F815811581E8C0E0EEC0E02285FC
:100273001183851082E0A3FEE0A3F5207808E0A3B4
:10028300F608DFFAE0A3FFE0A3C0E0E0A3C0E0E0EC
:10029300A3C0E0E0A3C0E0E4C5A885821085831174
:1002A300C5A8D083D08222C0D02510C582C0E0E586
:1002B3001134FFC583C0E0E510C3958224F310AF6A
:1002C300088583118582108008858311858210D269
:1002D300AFC8F0A3E9F0A3EAF0A3EBF0A37908E732
:1002E30009F0A3D8FAECF0A3EDF0A3EEF0A3EFF03E
:1002F300A3D0E0F0A3D0E0F0A3D0E0F0A3E520F09A
:10030300A3E5F0F0A322851183851082E0C0E0A36A
:10031300E0F9A3E0FAA3E0FBA37808E0F608A3DF83
:10032300FAE0FCA3E0FDA3E0FEA3E0FFA3E0C0E04E
:10033300A3E0C0E0A3E0F5D0A3E0F520A3E0A3F59C
:10034300F0E4C5A8858311858210C5A8D082D08327
:10035300D0E0F8D0E03274028000C0E0F40412016F
:10036300EBD0E012011422D083D082C5F0E493A332
:10037300C5F0C395F0F5F0E493A3C395F04005E50C
:10038300F0048001E475F002A42582F582E5F035DE
:1003930083F583E493A3C0E0E493C0E022C082C06A
:1003A300837438900102F078017900E82402F58221
:1003B300E934011203F09419E99400A2D265D03311
:1003C30040E9746590011BF00209FCC082C0837888
:1003D300007900E8241CF582E934011203F0941A31
:1003E300E99400A2D265D03340E90209FCF583E425
:1003F300F0E8240108E93400F9C3E82274F3120297
:1004030012EAFEEBFF890A8C088D09C2AF9004C47F
:10041300E0FAC3950A50048A0C8002890C750D001A
:10042300780C1203599004C5E0FCA3E0FDEEFA1228
:100433000B8674021201D1E5087002E50960219070
:1004430004C8E0F83395E0F99004CBE0FAE8C39AE6
:10045300F8E99400F9850882850983E8F0A3E9F0B7
:10046300E49004C9F0D2AF9004C4E0FAC3950A50F3
:1004730004EAFB8002AB0AEBFC8E828F83E0F87404
:1004830038C398F8E49400F97A037B0012015AEA1E
:100493007001EB6003020539741A6C6003020539BD
:1004A3009004CBE0FA9004C8E0C39AF508790212ED
:1004B30009D48E828F83E024CEF509F83395E0F9D1
:1004C300E82402F582E93401F583E508F07D008D27
:1004D30082AA82EE2AF582EF3400F583E0C0E0E5DC
:1004E30009F83395E0F9E875F01BA4F8ACF075F062
:1004F3001BE9A42CF9EA241BFAE43401FBE82AF5EE
:1005030082E93BF583D0E0F00D741A6D70C1E50903
:10051300F83395E0F9E824BDF582E93401F583E584
:1005230008F08E828F83E0643570067401900101B8
:10053300F07902120A011203CE7F0602027274FAE4
:100543001201BBE4900101F01203A01203CE740266
:10055300120206740EF0A37420F0740412020674DF
:1005630016F07405120206E4F08510828511837477
:1005730058F0A37425F012098B12063E12063E7B37
:1005830000EB75F01BA42450F582E5F03401F583EC
:100593007438F00B74186B70E87B0074332BC0E075
:1005A300EB75F01BA42436F582E5F03401F583D016
:1005B300E0F00B74186B70E3851082851183AA82B7
:1005C300AB83120748E96401700312096E1208EF46
:1005D3009004C9E0600DEEFCEFFD791A7A1C7B01F3
:1005E3001203FF900101E060E779011209D47A0850
:1005F3001206507A087B00120A907508001209024D
:10060300791BE50889F0A42436FCE5F03401FD7A72
:100613006B7B251207E01208EF0508741865087054
:10062300DC120902791A7C027D017AFF7BFF120733
:10063300E01208EF1203A0E4F0809579011209D4C7
:100643007A641206507A647B00120A90227B0012AD
:100653000A907901120A0122C082C083120AFFD2D2
:10066300AF79017A3A7B04120AE690043AE0C2E7D2
:10067300F064057038790512073A5004D2F080020D
:10068300C2F0A2F0E492E09004C7F090043FE0A22D
:10069300E7400302073290043DE0FA9003BEE06AAC
:1006A300600302073274019003BF020731E024F5AF
:1006B3009004C4F090043AE0F912073A5004D2F0DF
:1006C3008002C2F0A2F0E492E09004C7F0900442EA
:1006D300E0F8A3E0F99004C0E8F0A3E9F09004C5C2
:1006E3007444F0A37404F09004C4E0F83395E0F983
:1006F300E82444F8E93404F988828983E09004C843
:10070300F088828983A3E0A2E7501C9004BFE0FA3B
:1007130090043DE06A601090043BE054DF64417054
:100723000674019004C9F090043DE09004BFF0C248
:10073300AF120B100209FC7A3B7B04120AE6900409
:100743003BE0A2E52274F5120212EAFEEBFF906190
:1007530089E04460F074099061FAF074159061B215
:10076300F0E49061AEF0120B10C2AF9003C5EEF04F
:10077300A3EFF09004C5E4F0A3F074019003C0F07C
:100783009004CC78081200F69003C1780812010592
:1007930075F0059003C5120B59A3A3A3A3E0A424EA
:1007A300D490618F1208D7E8906174F0E990617575
:1007B3001208E0E8906172F0E9906173F0A2AFE48F
:1007C30092E0FAC2AF9004BB745BF0A37406F0EA44
:1007D300A2E092AFD2AF79007F0402027274F612E4
:1007E3000212EAFEEBFF8C088D09890A9003C0E030
:1007F300700675E1EC75E1E3E9C394674003750A9C
:1008030067906193E0542270F8120AFF740B250A73
:100813009003C7F01208CA6004786180027841E847
:100823009003C8F074889003C9F09003BEE090036E
:10083300CA1208E09003CBE8F0A3E9F09003CDEEF1
:10084300F0A3EF1208D79003CFE8F0A3E9F07A0002
:1008530080208A82A882E50828F582E5093400F51C
:1008630083E0C0E0E824D1F582E43403F583D0E0EB
:10087300F00AEAC3950A40DA740A250AF97AC77BB3
:1008830003120ABD120B1075E1E9E591A2E150FADA
:100893007591FD1208CA600FE49003BFF07A4A7B9A
:1008A30002120A5FE060047900800279019003C0BC
:1008B300E0700675E1EF75E1ECE970069003BEE0C8
:1008C30004F07F030202729003C5120B5DA3A3A37E
:1008D300A3A3E0221208E7E0F8A3E0F9221208E755
:1008E300A3A380F3F09003C5120B6122C082C083DF
:1008F30074019003C0F075E1EC75E1E30209FCC0FB
:1009030082C083E49003C0F075E1EF75E1EC020966
:10091300FC748055C6FA53BEFBE59DA2E550FAE58B
:100923009DA2E240F400740169700774494AF5C658
:100933008005E970028AC6E5C6FAE59EFBEA6B709C
:10094300F943BE0422E59EA2E64003790122E97041
:100953000553C67F8008740169700343C680E5C6EA
:10096300FAE59EFBEA6B70F97900227901120A2AF3
:100973007902120A2A7903120A2A7904120A2A7AB4
:10098300327B00120A9080E37900120948E9601073
:1009930079011209147900120948E9600312096EFA
:1009A300790012091443FE01C29043FE02C291432F
:1009B300FE10C29443FD02C28153F3FD53FDFD4378
:1009C3008F0253F5FE53FFFE43F70143F340D2AFCB
:1009D30022C082C083E912036A0103FC09E809EC1F
:1009E30009F009F409D2908010D291800CD294803E
:1009F30008D28174019004BAF0D083D08222C082DD
:100A0300C083E912036A0103280A150A190A1D0A99
:100A1300210AC290800FC291800BC2948007C281C9
:100A2300E49004BAF080D2C082C083E912036A0161
:100A3300035D0A3E0A450A4A0A510A639001E5909A
:100A4300801863900280F7639010E590800C6380B8
:100A530002E5809004BAE06401F0809DEBC313FBD0
:100A6300EA13FAEAF8EBF974FF28FA74FF39FB7416
:100A73000068700374006960130000000000000048
:100A83000000000000000000000080D72274F8126C
:100A93000212EAFEEBFFEEF8EFF974FF28FE74FF93
:100AA30039FF740068700374006960097AE87B0396
:100AB300120A5F80E17F0102027274F7120212755B
:100AC300E1EE7591FD7C0080108C08EA2508F58223
:100AD300EB3400F583E0F5D90CECC39940EB7F02CE
:100AE300020272C082C083800DE5D98A828B83F0B3
:100AF300A3AA82AB8319E970F00209FCC082C08308
:100B03009061A3E0C2E6F0539AFE0209FCC082C0E2
:100B1300839061A3E0D2E6F0439A010209FCC0E0AE
:100B230074F21202AAA2AFE492E0FEC2AFE5E9A218
:100B3300E650199004BBE07002A3E060099004BB87
:100B4300120B59120210759B0053E9BFEEA2E092FB
:100B5300AF7F01020309120B5D22120B6122E0F841
:100B6300A3E0F583888222C0E074F21202AA900403
:100B7300BDE07002A3E060099004BD120B5912029C
:100B83001080CE74F71202127409120206E0FEA35B
:100B9300E0FFEAF8EBF980188C828D83E088828984
:100BA30083F0A3A882A9838C828D83A3AC82AD83B7
:100BB3008E088F0974FF25081E74FF3509FFE508A9
:0B0BC3007002E50970D27F020202728E
:04000005000000D324
:00000001FF
