:020000040000FA
:030000000200D328
:03004B000206ADFD
:10008300020BAD00000080FB1200E2B90003020086
:10009300CDE490010178BF79048002F0A3D8FCD9A4
:1000A300FA9004BFAA82AB839000E57812790180AD
:1000B30015E493A3AC82AD838A828B83F0A3AA82D7
:1000C300AB838C828D83D8E9D9E71205631200864E
:1000D30075D0007581BF75100175110102008B7910
:1000E3000122FF00000000000000000000004900A2
:1000F300000000E0F608A3E0F608A3E0F608A3E09A
:10010300F622E6F008A3E6F008A3E6F008A3E6F07B
:1001130022CAC0E0E6F0A308DAFAD0E0FA22C3E488
:1001230098F8E499F91201628026C3E49AFAE49BF1
:10013300FBE920E7E9120162E498F8E499F922C3A4
:10014300E498F8E499F9120162E498F8E499F9C3A0
:10015300E49AFAE49BFB22EB20E7CFE920E7E0B93E
:100163000010BB0008E88AF084F8AAF022E4FBC878
:10017300FA22EB70227B10C833C8C933C933500746
:10018300C39AC3DBF280069A50012ADBEAC833F430
:10019300C8C933F4C9FA2275F008E4C833C8C933AF
:1001A300C933C99AC99B5004C92AC93BD5F0ECFB92
:1001B300C833F4C8E4C9FA22251010AF08F510407B
:1001C3000215118008F51040021511D2AF22C0D0DC
:1001D300251010AF08F510500205118008F51050D6
:1001E300020511D2AFD0D0222510F58210AF08F549
:1001F30010400215118008F51040021511D2AF8589
:100203001183222510F582E43511F58322E4732549
:1002130010C582C0E0E51134FFC583C0E0E510C31B
:10022300958224F9F8E4C5A8858311858210C5A8B1
:10023300E8CEF0A3E520F0A37808E608F0A3DEFA01
:10024300EFF0A3E58124FBF8E608F0A3E608F0A3AA
:100253000808E608F0A3E608F0A315811581D0E0AD
:10026300FED0E0F815811581E8C0E0EEC0E02285FC
:100273001183851082E0A3FEE0A3F5207808E0A3B4
:10028300F608DFFAE0A3FFE0A3C0E0E0A3C0E0E0EC
:10029300A3C0E0E0A3C0E0E4C5A885821085831174
:1002A300C5A8D083D08222C0D02510C582C0E0E586
:1002B3001134FFC583C0E0E510C3958224F310AF6A
:1002C300088583118582108008858311858210D269
:1002D300AFC8F0A3E9F0A3EAF0A3EBF0A37908E732
:1002E30009F0A3D8FAECF0A3EDF0A3EEF0A3EFF03E
:1002F300A3D0E0F0A3D0E0F0A3D0E0F0A3E520F09A
:10030300A3E5F0F0A322851183851082E0C0E0A36A
:10031300E0F9A3E0FAA3E0FBA37808E0F608A3DF83
:10032300FAE0FCA3E0FDA3E0FEA3E0FFA3E0C0E04E
:10033300A3E0C0E0A3E0F5D0A3E0F520A3E0A3F59C
:10034300F0E4C5A8858311858210C5A8D082D08327
:10035300D0E0F8D0E03274028000C0E0F40412016F
:10036300EBD0E012011422D083D082C5F0E493A332
:10037300C5F0C395F0F5F0E493A3C395F04005E50C
:10038300F0048001E475F002A42582F582E5F035DE
:1003930083F583E493A3C0E0E493C0E022C082C06A
:1003A300837448900104F078017900E82404F5820D
:1003B300E934011203F09419E99400A2D265D03311
:1003C30040E9746590011DF0020A88C082C08378F9
:1003D300007900E8241EF582E934011203F0941A2F
:1003E300E99400A2D265D03340E9020A88F583E498
:1003F300F0E8240108E93400F9C3E82274F3120297
:1004030012EAFEEBFF890A8C088D09C2AF9004C47F
:10041300E0FAC3950A50048A0C8002890C750D001A
:10042300780C1203599004C5E0FCA3E0FDEEFA1228
:100433000BF674021201D1E5087002E50960219000
:1004430004C8E0F83395E0F99004CBE0FAE8C39AE6
:10045300F8E99400F9850882850983E8F0A3E9F0B7
:10046300E49004C9F0D2AF9004C4E0FAC3950A50F3
:1004730004EAFB8002AB0A8B087902120A608E82BF
:100483008F83E0F87448C398F8E49400F97A037B07
:100493000012015AEA7001EB600302055B741A65EE
:1004A30008600302055B9004CBE0FA9004C8E0C344
:1004B3009AF5088E828F83E024CEF509F83395E010
:1004C300F9E82404F582E93401F583E508F07D00B9
:1004D3008D82AA82EE2AF582EF3400F583E0C0E034
:1004E300E509F83395E0F9E875F01BA4F8ACF0756D
:1004F300F01BE9A42CF9EA241DFAE43401FBE82AF1
:10050300F582E93BF583D0E0F00D741A6D70C1E517
:1005130009F83395E0F9E8246FF582E93403F583AC
:10052300E508F08E828F83E06445700674019001C4
:1005330003F08E828F83E0644B6012E0F874152819
:10054300F8E43400F97448687001E97006740190A6
:100553000101F07902120A8D1203CE7F06020272A4
:1005630074FA1201BBE4900103F01203A01203CE4C
:1005730074021202067408F0A37420F074041202C9
:10058300067416F07405120206E4F08510828511D4
:10059300837468F0A37425F0120A171206901206EA
:1005A3009075E40C43E50475DAFF75DBFFD2DED208
:1005B300B9C2C153AFFED2AF7B00EB75F01BA424CD
:1005C30052F582E5F03401F5837448F00B74186B2F
:1005D30070E87B0074332BC0E0EB75F01BA4243868
:1005E300F582E5F03401F583D0E0F00B74186B70FD
:1005F300E3851082851183AA82AB831207D4E96451
:100603000170031209FA12097B9004C9E0600DEE30
:10061300FCEFFD791A7A1E7B011203FF900103E0C0
:1006230060547901120A607A071206A27A077B00E6
:10063300120B1C75080012098E791BE50875F05121
:10064300A42438FCE5F03401FD7A6B7B2512086C99
:1006530012097B05087408650870DB12098E791A84
:100663007C047D017AFF7BFF12086C12097B120365
:10067300A043E402E4F0900101E06401708B53E4D1
:10068300FD75E200E4F0900102F002060C7901121C
:100693000A607A641206A27A647B00120B1C227B26
:1006A30000120B1C7901120A8D22C0E0C0D0C08257
:1006B300C083900102E004F05407700874019001B4
:1006C300031206DD900102E0C394154004E4120610
:1006D300DDD083D082D0D0D0E032F053E4FDC2C16C
:1006E30053AFFE22C082C083120B8BD2AF79017A43
:1006F3003C7B04120B7290043CE0C2E7F06405708B
:100703003879051207C65004D2F08002C2F0A2F075
:10071300E492E09004C7F0900441E0A2E7400302B2
:1007230007BE90043FE0FA9003C0E06A600302074B
:10073300BE74019003C10207BDE024F59004C4F028
:1007430090043CE0F91207C65004D2F08002C2F0D4
:10075300A2F0E492E09004C7F0900444E0F8A3E030
:10076300F99004C0E8F0A3E9F09004C57446F0A33F
:100773007404F09004C4E0F83395E0F9E82446F8F3
:10078300E93404F988828983E09004C8F088828977
:1007930083A3E0A2E7501C9004BFE0FA90043FE07B
:1007A3006A601090043DE054DF6441700674019068
:1007B30004C9F090043FE09004BFF0C2AF120B9C59
:1007C300020A887A3D7B04120B7290043DE0A2E595
:1007D3002274F5120212EAFEEBFF906189E0446095
:1007E300F074099061FAF074159061B2F0E49061CD
:1007F300AEF0120B9CC2AF9003C7EEF0A3EFF090E4
:1008030004C5E4F0A3F074019003C2F09004CC7823
:10081300081200F69003C3780812010575F00590DD
:1008230003C7120BE5A3A3A3A3E0A424D490618F71
:10083300120963E8906174F0E990617512096CE83C
:10084300906172F0E9906173F0A2AFE492E0FAC2B2
:10085300AF9004BD74E7F0A37406F0EAA2E092AF90
:10086300D2AF79007F0402027274F6120212EAFE1A
:10087300EBFF8C088D09890A9003C2E0700675E1CD
:10088300EC75E1E3E9C394674003750A67906193EC
:10089300E0542270F8120B8B740B250A9003C9F0F5
:1008A3001209566004786180027841E89003CAF027
:1008B30074889003CBF09003C0E09003CC12096CD2
:1008C3009003CDE8F0A3E9F09003CFEEF0A3EF128D
:1008D30009639003D1E8F0A3E9F07A0080208A82CB
:1008E300A882E50828F582E5093400F583E0C0E035
:1008F300E824D3F582E43403F583D0E0F00AEAC3B5
:10090300950A40DA740A250AF97AC97B03120B495E
:10091300120B9C75E1E9E591A2E150FA7591FD1284
:100923000956600FE49003C1F07A4A7B02120AEB86
:10093300E060047900800279019003C2E0700675DB
:10094300E1EF75E1ECE970069003C0E004F07F038A
:100953000202729003C7120BE9A3A3A3A3A3E0228D
:10096300120973E0F8A3E0F922120973A3A380F339
:10097300F09003C7120BED22C082C0837401900371
:10098300C2F075E1EC75E1E3020A88C082C083E43A
:100993009003C2F075E1EF75E1EC020A88748055AB
:1009A300C6FA53BEFBE59DA2E550FAE59DA2E240DF
:1009B300F400740169700774494AF5C68005E9704B
:1009C300028AC6E5C6FAE59EFBEA6B70F943BE04EC
:1009D30022E59EA2E64003790122E9700553C67F12
:1009E3008008740169700343C680E5C6FAE59EFB7F
:1009F300EA6B70F97900227901120AB67902120AB8
:100A0300B67903120AB67904120AB67A327B001257
:100A13000B1C80E379001209D4E9601079011209F3
:100A2300A079001209D4E960031209FA79001209C6
:100A3300A043FE01C29043FE02C29143FE10C29442
:100A430043FD02C28153F3FD53FDFD438F0253F572
:100A5300FE53FFFE43F70143F340D2AF22C082C0EF
:100A630083E912036A0103880A740A780A7C0A80FC
:100A73000AD2908010D291800CD2948008D28174D3
:100A8300019004BCF0D083D08222C082C083E912DB
:100A9300036A0103B40AA10AA50AA90AAD0AC2900E
:100AA300800FC291800BC2948007C281E49004BC82
:100AB300F080D2C082C083E912036A0103E90ACA43
:100AC3000AD10AD60ADD0A639001E5908018639083
:100AD3000280F7639010E590800C638002E58090BC
:100AE30004BCE06401F0809DEBC313FBEA13FAEA54
:100AF300F8EBF974FF28FA74FF39FB74006870038C
:100B03007400696013000000000000000000000092
:100B130000000000000080D72274F8120212EAFEDF
:100B2300EBFFEEF8EFF974FF28FE74FF39FF740052
:100B330068700374006960097AE87B03120AEB802A
:100B4300E17F0102027274F712021275E1EE7591F0
:100B5300FD7C0080108C08EA2508F582EB3400F553
:100B630083E0F5D90CECC39940EB7F02020272C01B
:100B730082C083800DE5D98A828B83F0A3AA82ABDE
:100B83008319E970F0020A88C082C0839061A3E0F0
:100B9300C2E6F0539AFE020A88C082C0839061A322
:100BA300E0D2E6F0439A01020A88C0E074F212022E
:100BB300AAA2AFE492E0FEC2AFE5E9A2E650199023
:100BC30004BDE07002A3E060099004BD120BE512BE
:100BD3000210759B0053E9BFEEA2E092AF7F0102C2
:100BE3000309120BE922120BED22E0F8A3E0F583CF
:100BF30088822274F71202127409120206E0FEA31D
:100C0300E0FFEAF8EBF980188C828D83E088828913
:100C130083F0A3A882A9838C828D83A3AC82AD8346
:100C23008E088F0974FF25081E74FF3509FFE50838
:0B0C33007002E50970D27F020202721D
:04000005000000D324
:00000001FF
