:020000040000FA
:030000000200D328
:030033000209259A
:03004B00020B8421
:03006B0002086127
:03007B000208CEAA
:10008300020B4C00000080FB1200E2B900030200E7
:10009300CDE4900101786079028002F0A3D8FCD905
:1000A300FA900260AA82AB839000E578127901800E
:1000B30015E493A3AC82AD838A828B83F0A3AA82D7
:1000C300AB838C828D83D8E9D9E71203671200864C
:1000D30075D0007581BF75100175110102008B7910
:1000E3000122FF00000000000000000000004900A2
:1000F300000000E0F608A3E0F608A3E0F608A3E09A
:10010300F622E6F008A3E6F008A3E6F008A3E6F07B
:1001130022CAC0E0E6F0A308DAFAD0E0FA227004BB
:1001230022600D18C6C333C608C633C6D5E0F4181B
:1001330022251010AF08F510400215118008F510A4
:1001430040021511D2AF22C0D0251010AF08F51010
:10015300500205118008F51050020511D2AFD0D01E
:10016300222510F58210AF08F51040021511800802
:10017300F51040021511D2AF851183222510F582A7
:10018300E43511F58322E4732510C582C0E0E5113F
:1001930034FFC583C0E0E510C3958224F9F8E4C5B4
:1001A300A8858311858210C5A8E8CEF0A3E520F0C9
:1001B300A37808E608F0A3DEFAEFF0A3E58124FBB9
:1001C300F8E608F0A3E608F0A30808E608F0A3E6BB
:1001D30008F0A315811581D0E0FED0E0F815811554
:1001E30081E8C0E0EEC0E022851183851082E0A3A0
:1001F300FEE0A3F5207808E0A3F608DFFAE0A3FF0A
:10020300E0A3C0E0E0A3C0E0E0A3C0E0E0A3C0E05F
:10021300E4C5A8858210858311C5A8D083D0822226
:10022300C0D02510C582C0E0E51134FFC583C0E00E
:10023300E510C3958224F310AF08858311858210DE
:100243008008858311858210D2AFC8F0A3E9F0A39B
:10025300EAF0A3EBF0A37908E709F0A3D8FAECF0EE
:10026300A3EDF0A3EEF0A3EFF0A3D0E0F0A3D0E072
:10027300F0A3D0E0F0A3E520F0A3E5F0F0A32285FE
:100283001183851082E0C0E0A3E0F9A3E0FAA3E0C4
:10029300FBA37808E0F608A3DFFAE0FCA3E0FDA3E4
:1002A300E0FEA3E0FFA3E0C0E0A3E0C0E0A3E0F52D
:1002B300D0A3E0F520A3E0A3F5F0E4C5A88583115E
:1002C300858210C5A8D082D083D0E0F8D0E0327404
:1002D300028000C0E0F404120164D0E01201142291
:1002E300D083D082C5F0E493A3C5F0C395F0F5F0B5
:1002F300E493A3C395F04005E5F0048001E475F0B1
:1003030002A42582F582E5F03583F583E493A3C047
:10031300E0E493C0E022C082C0837401900103F043
:10032300F87900E82403F582E9340112034E40F31F
:10033300020A50C082C08378007900E8241CF58249
:10034300E9340112034E40F3020A50F583E4F0E866
:10035300240108E93400F9C3E89419E99400A2D20E
:1003630065D0332274FA1201349001017448F0A36A
:100373007403F0120319120336740212017F740717
:10038300F0A37420F0740412017F7419F074051241
:10039300017FE4F08510828511837421F0A3742515
:1003A300F01207F1851082851183AA82AB831205AF
:1003B3003CE9640170031207D4120767900101E05E
:1003C30064487004A3E06403702F900101E4F0A378
:1003D300F079011209FFE4900137F075E1EF75E15F
:1003E300EC79197C037D017AFF7BFF1205D4120798
:1003F300677901120A2912031990026AE0603790A3
:10040300026CE0FA900269E0C39AF50879021209D6
:10041300FFEEFCEFFD79197A1C7B011206E39001D4
:100423001CE02403F582E43401F583E508F0790246
:10043300120A291203367A647B00120A8A90010198
:10044300E02401F0A3E03400F00203BFC082C083C4
:10045300120B2AD2AF79017AB17B01120B119001F1
:10046300B1E0C2E7F064057038790512052E500437
:10047300D2F08002C2F0A2F0E492E0900268F09021
:1004830001B6E0A2E740030205269001B4E0FA902A
:100493000135E06A60030205267401900136020506
:1004A30025E024F5900265F09001B1E0F912052EE4
:1004B3005004D2F08002C2F0A2F0E492E09002680D
:1004C300F09001B9E0F8A3E0F9900261E8F0A3E944
:1004D300F090026674BBF0A37401F0900265E0F83B
:1004E3003395E0F9E824BBF8E93401F9888289837C
:1004F300E0900269F088828983A3E0A2E7501C9010
:100503000260E0FA9001B4E06A60109001B2E05436
:10051300DF64417006740190026AF09001B4E090C8
:100523000260F0C2AF120B3B020A507AB27B011297
:100533000B119001B2E0A2E52274F512018BEAFEE1
:10054300EBFF906189E04460F074099061FAF07404
:10055300159061B2F0E49061AEF0120B3BC2AF9024
:10056300013CEEF0A3EFF0900266E4F0A3F0740117
:10057300900137F090026D78081200F690013878F8
:100583000812010575F00590013C1208BDA3A3A351
:10059300A3E0A424D490618F1206CBE8906174F099
:1005A300E99061751206D4E8906172F0E990617385
:1005B300F0A2AFE492E0FAC2AF90025C744FF0A3F2
:1005C3007404F0EAA2E092AFD2AF79007F04020193
:1005D300EB74F612018BEAFEEBFF8C088D09890A96
:1005E300900137E0700675E1EC75E1E3E9C39467C8
:1005F3004003750A67906193E0542270F8120B2A46
:10060300740B250A90013EF01206BE6004786180E7
:10061300027841E890013FF07488900140F0900126
:1006230035E09001411206D4900142E8F0A3E9F0CD
:10063300900144EEF0A3EF1206CB900146E8F0A33D
:10064300E9F07A0080208A82A882E50828F582E50D
:10065300093400F583E0C0E0E82448F582E434017E
:10066300F583D0E0F00AEAC3950A40DA740A250A52
:10067300F97A3E7B01120AE8120B3B75E1E9E59139
:10068300A2E150FA7591FD1206BE600FE4900136A7
:10069300F07A4A7B02120A8AE060047900800279C8
:1006A30001900137E0700675E1EF75E1ECE9700642
:1006B300900135E004F07F030201EB90013C120846
:1006C300C1A3A3A3A3A3E0221206DBE0F8A3E0F9EE
:1006D300221206DBA3A380F3F090013C1208C5228B
:1006E30074F512018B8908ECFEEDFFC2AF90026531
:1006F300E0FCC3950850048C0A8002890A750B003C
:10070300780A1202D2900266E0FCA3E0FD120BA06D
:10071300740212014AEE7001EF602F900269E0C388
:100723009480E0F8500C90026CE0FAE8C39AF8E485
:10073300800CE42890026CE0FAE89AF874FF9400C5
:10074300F98E828F83E8F0A3E9F0E490026AF0D295
:10075300AF900265E0FAC395085004EAF98002A954
:10076300080205CFC082C0837401900137F075E1A0
:10077300EC75E1E3020A50748055C6FA53BEFBE5FB
:100783009DA2E550FAE59DA2E240F4007401697070
:100793000774494AF5C68005E970028AC6E5C6FAB8
:1007A300E59EFBEA6B70F943BE0422E59EA2E64098
:1007B30003790122E9700553C67F800874016970CB
:1007C3000343C680E5C6FAE59EFBEA6B70F9790040
:1007D300227901120A557902120A557903120A5530
:1007E3007904120A557A327B00120ABB80E379003E
:1007F3001207AEE96010790112077A79001207AE89
:10080300E960031207D4790012077A43FE01C2900C
:1008130043FE02C29143FE10C29443FD02C28153C0
:10082300F3FD53FDFD438F0253F5FE53FFFE43F7E4
:100833000143F34043F10243F48043F44043F42083
:10084300E59EA2E0E492E0240FFA75FB8075F800C0
:1008530074204AF5FC75FA5312099ED2AF22C0E008
:1008630074F1120223C2C5E58960487E0075080150
:10087300750900EE7808120121AF08E5895F602C45
:10088300EEC333F8E433F9E82431F582E93402F5B1
:1008930083E07002A3E0600EE82431F582E93402BC
:1008A3001208BB120189EFF45589F5890EEEC39442
:1008B3000840BA7F02020282F5831208C12212089D
:1008C300C522E0F8A3E0F583888222C0E074F11228
:1008D3000223C2EBE58A60487E00750801750900B2
:1008E300EE7808120121AF08E58A5F602CEEC3336E
:1008F300F8E433F9E82441F582E93402F583E07042
:1009030002A3E0600EE82441F582E934021208BB39
:10091300120189EFF4558AF58A0EEEC3940840BAA2
:100923008091C0E074F1120223C2E8E58B60487E37
:1009330000750801750900EE7808120121AF08E57A
:100943008B5F602CEEC333F8E433F9E82451F5826E
:10095300E93402F583E07002A3E0600EE82451F568
:1009630082E934021208BB120189EFF4558BF58B2F
:100973000EEEC3940540BA0208B6C292C280C2F911
:1009830089F9A2F950FC00000000D29222C292D24F
:1009930080C2F989F9A2F950FC80EBEEC0E053F470
:1009A300FBD29243FE0453F3FED28043FD0179153B
:1009B30012097D795012097D790F120990790E126F
:1009C300097D792512097D791C12097D7A157B0031
:1009D300120ABB798012097D7E3079201209901E9C
:1009E300EE70F779C012097D7E4079001209901EDE
:1009F300EE70F7792912097DD0E0FE22C082C08310
:100A0300E91202E30103270A130A170A1B0A1F0A42
:100A1300D2908010D291800CD2948008D28174013C
:100A230090025BF08027C082C083E91202E30103D6
:100A3300500A3D0A410A450A490AC290800FC291F1
:100A4300800BC2948007C281E490025BF0D083D014
:100A53008222C082C083E91202E30103880A690A81
:100A6300700A750A7C0A639001E59080186390020E
:100A730080F7639010E590800C638002E58090021C
:100A83005BE06401F080C6EBC313FBEA13FAEAF8F8
:100A9300EBF974FF28FA74FF39FB74006870037470
:100AA3000069601300000000000000000000000067
:100AB300000000000080D72274F812018BEAFEEBDD
:100AC300FFEEF8EFF974FF28FE74FF39FF74006836
:100AD300700374006960097AE87B03120A8A80E173
:100AE3007F010201EB74F712018B75E1EE7591FD45
:100AF3007C0080108C08EA2508F582EB3400F5832E
:100B0300E0F5D90CECC39940EB7F020201EBC08204
:100B1300C083800DE5D98A828B83F0A3AA82AB833D
:100B230019E970F0020A50C082C0839061A3E0C249
:100B3300E6F0539AFE020A50C082C0839061A3E09C
:100B4300D2E6F0439A01020A50C0E074F212022383
:100B5300A2AFE492E0FEC2AFE5E9A2E6501990022B
:100B63005CE07002A3E0600990025C1208BD120110
:100B730089759B0053E9BFEEA2E092AF7F010202A9
:100B830082C0E074F212022390025EE07002A3E0DE
:100B9300600990025E1208BD12018980DF74F712AA
:100BA300018B740912017FE0FEA3E0FFEAF8EBF981
:100BB30080188C828D83E088828983F0A3A882A920
:100BC300838C828D83A3AC82AD838E088F0974FFDF
:100BD30025081E74FF3509FFE5087002E50970D288
:050BE3007F020201EB9E
:04000005000000D324
:00000001FF
