:020000040000FA
:030000000200D328
:03004B00020A04A2
:100083000209BB00000080FB1200E2B9000302007A
:10009300CDE4900101783779028002F0A3D8FCD92E
:1000A300FA900237AA82AB839000E5781279018037
:1000B30015E493A3AC82AD838A828B83F0A3AA82D7
:1000C300AB838C828D83D8E9D9E71204351200867D
:1000D30075D0007581BF75100175110102008B7910
:1000E3000122FF00000000000000000000004900A2
:1000F300000000E0F608A3E0F608A3E0F608A3E09A
:10010300F622E6F008A3E6F008A3E6F008A3E6F07B
:1001130022CAC0E0E6F0A308DAFAD0E0FA222510FA
:1001230010AF08F510400215118008F510400215B4
:1001330011D2AF22C0D0251010AF08F51050020520
:10014300118008F51050020511D2AFD0D02225102E
:10015300F58210AF08F510400215118008F5104024
:10016300021511D2AF851183222510F582E43511D2
:10017300F58322E4732510C582C0E0E51134FFC581
:1001830083C0E0E510C3958224F9F8E4C5A885830C
:1001930011858210C5A8E8CEF0A3E520F0A3780866
:1001A300E608F0A3DEFAEFF0A3E58124FBF8E60806
:1001B300F0A3E608F0A30808E608F0A3E608F0A316
:1001C30015811581D0E0FED0E0F815811581E8C0D6
:1001D300E0EEC0E022851183851082E0A3FEE0A358
:1001E300F5207808E0A3F608DFFAE0A3FFE0A3C058
:1001F300E0E0A3C0E0E0A3C0E0E0A3C0E0E4C5A862
:10020300858210858311C5A8D083D08222C0D025D2
:1002130010C582C0E0E51134FFC583C0E0E510C31B
:10022300958224F310AF0885831185821080088599
:100233008311858210D2AFC8F0A3E9F0A3EAF0A33B
:10024300EBF0A37908E709F0A3D8FAECF0A3EDF0FB
:10025300A3EEF0A3EFF0A3D0E0F0A3D0E0F0A3D09F
:10026300E0F0A3E520F0A3E5F0F0A3228511838558
:100273001082E0C0E0A3E0F9A3E0FAA3E0FBA378D7
:1002830008E0F608A3DFFAE0FCA3E0FDA3E0FEA389
:10029300E0FFA3E0C0E0A3E0C0E0A3E0F5D0A3E06B
:1002A300F520A3E0A3F5F0E4C5A8858311858210AA
:1002B300C5A8D082D083D0E0F8D0E03274028000A9
:1002C300C0E0F404120151D0E012011422D083D013
:1002D30082C5F0E493A3C5F0C395F0F5F0E493A3CE
:1002E300C395F04005E5F0048001E475F002A42510
:1002F30082F582E5F03583F583E493A3C0E0E493CC
:10030300C0E022C082C0837433900102F078017987
:1003130000E82402F582E934011203569419E994A2
:1003230000A2D265D03340E9746590011BF0020846
:10033300BFC082C08378007900E8241CF582E934C9
:1003430001120356941AE99400A2D265D03340E90E
:100353000208BFF583E4F0E8240108E93400F9C397
:10036300E82274F3120178EAFEEBFF890A8C088D08
:1003730009C2AF90023CE0FAC3950A50048A0C808C
:1003830002890C750D00780C1202BF90023DE0FC4F
:10039300A3E0FDEEFA120A207402120137E5087099
:1003A30002E5096021900240E0F83395E0F99002FC
:1003B30043E0FAE8C39AF8E99400F98508828509CD
:1003C30083E8F0A3E9F0E4900241F0D2AF90023C5D
:1003D300E0FAC3950A5004EAFB8002AB0AEBFA8EFB
:1003E300828F83E0C394334041741A6A703C900255
:1003F30043E0FA900240E0C39AF508790212086ECE
:100403008E828F83E024CEFAF83395E0F9E8240254
:10041300F582E93401F583E508F074186A7006740F
:1004230001900101F079021208981203347F060249
:1004330001D874FA12012112030612033474021252
:10044300016C7408F0A37420F0740412016C741826
:10045300F0740512016CE4F08510828511837453E6
:10046300F0A37425F01208251204EE1204EE75C9E8
:100473000043C908851082851183AA82AB831205C4
:10048300F4E96401700312080812079B74059001D4
:1004930001F0900241E0600DEEFCEFFD791A7A1C49
:1004A3007B01120365900101E06038E4F0790112E9
:1004B300086E7A1E7B0012092A79011208987A1EA7
:1004C3007B0012092AE4900138F075E1EF75E1EC45
:1004D300791A7C027D017AFF7BFF12068C12079B3F
:1004E30012030675C9A075C95080A7790212086E58
:1004F3007A647B0012092A79021208987A647B00D5
:1005030012092A22C082C083120999D2AF79017AD3
:10051300B27B011209809001B2E0C2E7F06405707A
:100523003879051205E65004D2F08002C2F0A2F039
:10053300E492E090023FF09001B7E0A2E7400302AB
:1005430005DE9001B5E0FA900136E06A600302052A
:10055300DE74019001370205DDE024F590023CF0E2
:100563009001B2E0F91205E65004D2F08002C2F025
:10057300A2F0E492E090023FF09001BAE0F8A3E029
:10058300F9900238E8F0A3E9F090023D74BCF0A3BF
:100593007401F090023CE0F83395E0F9E824BCF8EC
:1005A300E93401F988828983E0900240F0888289E6
:1005B30083A3E0A2E7501C900237E0FA9001B5E074
:1005C3006A60109001B3E054DF64417006740190D7
:1005D3000241F09001B5E0900237F0C2AF1209AAD0
:1005E3000208BF7AB37B011209809001B3E0A2E550
:1005F3002274F5120178EAFEEBFF906189E0446012
:10060300F074099061FAF074159061B2F0E49061AE
:10061300AEF01209AAC2AF90013DEEF0A3EFF09045
:10062300023DE4F0A3F07401900138F090024478A5
:10063300081200F6900139780812010575F005904B
:10064300013D1209F3A3A3A3A3E0A424D490618FD3
:10065300120783E8906174F0E990617512078CE8E2
:10066300906172F0E9906173F0A2AFE492E0FAC294
:10067300AF9002337407F0A37405F0EAA2E092AFDF
:10068300D2AF79007F040201D874F6120178EAFE32
:10069300EBFF8C088D09890A900138E0700675E13B
:1006A300EC75E1E3E9C394674003750A67906193CE
:1006B300E0542270F8120999740B250A90013FF057
:1006C3001207766004786180027841E8900140F077
:1006D3007488900141F0900136E090014212078C3A
:1006E300900143E8F0A3E9F0900145EEF0A3EF1287
:1006F3000783900147E8F0A3E9F07A0080208A821B
:10070300A882E50828F582E5093400F583E0C0E016
:10071300E82449F582E43401F583D0E0F00AEAC322
:10072300950A40DA740A250AF97A3F7B01120957C0
:100733001209AA75E1E9E591A2E150FA7591FD125A
:100743000776600FE4900137F07A4A7B021208F9CA
:10075300E06004790080027901900138E070067549
:10076300E1EF75E1ECE97006900136E004F07F03F8
:100773000201D890013D1209F7A3A3A3A3A3E0228A
:10078300120793E0F8A3E0F922120793A3A380F3DF
:10079300F090013D1209FB22C082C08374019001D5
:1007A30038F075E1EC75E1E30208BF748055C6FAD1
:1007B30053BEFBE59DA2E550FAE59DA2E240F4009D
:1007C300740169700774494AF5C68005E970028AA5
:1007D300C6E5C6FAE59EFBEA6B70F943BE0422E563
:1007E3009EA2E64003790122E9700553C67F800883
:1007F300740169700343C680E5C6FAE59EFBEA6BA4
:1008030070F979002279011208C479021208C479B7
:10081300031208C479041208C47A327B0012092A2D
:1008230080E379001207E2E9601079011207AE79DB
:10083300001207E2E9600312080879001207AE43C9
:10084300FE01C29043FE02C29143FE10C29443FDD7
:1008530002C28153F3FD53FDFD438F0253F5FE5353
:10086300FFFE43F70143F340D2AF22C082C083E9C6
:100873001202D001039608820886088A088E08D2DD
:10088300908010D291800CD2948008D28174019010
:100893000232F08027C082C083E91202D00103BF75
:1008A30008AC08B008B408B808C290800FC29180A1
:1008B3000BC2948007C281E4900232F0D083D082CD
:1008C30022C082C083E91202D00103F708D808DFEF
:1008D30008E408EB08639001E590801863900280B8
:1008E300F7639010E590800C638002E580900232FC
:1008F300E06401F080C6EBC313FBEA13FAEAF8EBFA
:10090300F974FF28FA74FF39FB74006870037400EC
:1009130069601300000000000000000000000000F8
:100923000000000080D72274F8120178EAFEEBFF82
:10093300EEF8EFF974FF28FE74FF39FF7400687056
:100943000374006960097AE87B031208F980E17F88
:10095300010201D874F712017875E1EE7591FD7CFF
:100963000080108C08EA2508F582EB3400F583E05B
:10097300F5D90CECC39940EB7F020201D8C082C0C9
:1009830083800DE5D98A828B83F0A3AA82AB831976
:10099300E970F00208BFC082C0839061A3E0C2E6A1
:1009A300F0539AFE0208BFC082C0839061A3E0D2D5
:1009B300E6F0439A010208BFC0E074F2120210A2EB
:1009C300AFE492E0FEC2AFE5E9A2E650199002332C
:1009D300E07002A3E060099002331209F31201767A
:1009E300759B0053E9BFEEA2E092AF7F0102026F55
:1009F3001209F7221209FB22E0F8A3E0F5838882AB
:100A030022C0E074F2120210900235E07002A3E0FB
:100A130060099002351209F312017680CE74F71241
:100A23000178740912016CE0FEA3E0FFEAF8EBF928
:100A330080188C828D83E088828983F0A3A882A9A1
:100A4300838C828D83A3AC82AD838E088F0974FF60
:100A530025081E74FF3509FFE5087002E50970D209
:050A63007F020201D832
:04000005000000D324
:00000001FF
