:020000040000FA
:030000000200D328
:03004B000208792F
:1000830002083400000080FB1200E2B90003020002
:10009300CDE4900101783379048002F0A3D8FCD930
:1000A300FA900433AA82AB839000E5781279018039
:1000B30015E493A3AC82AD838A828B83F0A3AA82D7
:1000C300AB838C828D83D8E9D9E712033312008680
:1000D30075D0007581BF75100175110102008B7910
:1000E3000122FF00000000000000000000004900A2
:1000F300000000E0F608A3E0F608A3E0F608A3E09A
:10010300F622E6F008A3E6F008A3E6F008A3E6F07B
:1001130022CAC0E0E6F0A308DAFAD0E0FA222510FA
:1001230010AF08F510400215118008F510400215B4
:1001330011D2AF22C0D0251010AF08F51050020520
:10014300118008F51050020511D2AFD0D02225102E
:10015300F58210AF08F510400215118008F5104024
:10016300021511D2AF851183222510F582E43511D2
:10017300F58322E4732510C582C0E0E51134FFC581
:1001830083C0E0E510C3958224F9F8E4C5A885830C
:1001930011858210C5A8E8CEF0A3E520F0A3780866
:1001A300E608F0A3DEFAEFF0A3E58124FBF8E60806
:1001B300F0A3E608F0A30808E608F0A3E608F0A316
:1001C30015811581D0E0FED0E0F815811581E8C0D6
:1001D300E0EEC0E022851183851082E0A3FEE0A358
:1001E300F5207808E0A3F608DFFAE0A3FFE0A3C058
:1001F300E0E0A3C0E0E0A3C0E0E0A3C0E0E4C5A862
:10020300858210858311C5A8D083D08222C0D025D2
:1002130010C582C0E0E51134FFC583C0E0E510C31B
:10022300958224F310AF0885831185821080088599
:100233008311858210D2AFC8F0A3E9F0A3EAF0A33B
:10024300EBF0A37908E709F0A3D8FAECF0A3EDF0FB
:10025300A3EEF0A3EFF0A3D0E0F0A3D0E0F0A3D09F
:10026300E0F0A3E520F0A3E5F0F0A3228511838558
:100273001082E0C0E0A3E0F9A3E0FAA3E0FBA378D7
:1002830008E0F608A3DFFAE0FCA3E0FDA3E0FEA389
:10029300E0FFA3E0C0E0A3E0C0E0A3E0F5D0A3E06B
:1002A300F520A3E0A3F5F0E4C5A8858311858210AA
:1002B300C5A8D082D083D0E0F8D0E03274028000A9
:1002C300C0E0F404120151D0E012011422D083D013
:1002D30082C5F0E493A3C5F0C395F0F5F0E493A3CE
:1002E300C395F04005E5F0048001E475F002A42510
:1002F30082F582E5F03583F583E493A3C0E0E493CC
:10030300C0E022C082C08378007900E8248AF582A5
:10031300E93403F583E4F0E8240108E93400F9C380
:10032300E8941BE99400A2D265D03340DE0207971C
:1003330074FA120121740212016C7408F0A3742080
:10034300F0740412016C7418F0740512016CE4F07B
:10035300851082851183746BF0A37425F01206C88F
:1003630079011204B379011204A879021204B37952
:10037300021204A812030653C6BF53C6B8E5C64308
:10038300BE0475F10075F33C53FF3FE5FF438680E0
:1003930043C50BE5C543C2D8E5C2C2E985108285D2
:1003A3001183AA82AB831205A5E9640170031206C7
:1003B300AB74019003A7F075E1EC75E1E302048EE1
:1003C30075081B75090078081202BF900439E0FC18
:1003D300A3E0FD7A8A7B031208957402120137EEBB
:1003E3007001EF601F90043CE0F83395E0F990044E
:1003F3003FE0FAE8C39AF8E99400F98E828F83E824
:10040300F0A3E9F0E490043DF0D2AF900438E0C3E8
:10041300941B40449003A4E06434703C900389E04F
:1004230004F07D008D82A882E8248AF582E43403F7
:10043300F583E0C0E090038AE075F01BA4FAE8249A
:10044300A0F8E434FBF9EA28F582E5F039F583D026
:10045300E0F00D741B6D70CC900389E06418702874
:10046300E4F0FBEB75F01BA42401F582E5F0340105
:10047300F5837A1BE0F5C1A3A2E950FCC2E91AEAAD
:1004830070F20B74186B70DB12030690043DE0608E
:10049300FAC2AF900438E0FAC3941B40030203C3CB
:1004A3008A080203C612073B7A647B001207CD2237
:1004B30012071180F3C082C083120812D2AF7901F0
:1004C3007AAE7B031207FA9003AEE0C2E7F064054D
:1004D300703879051205975004D2F08002C2F0A259
:1004E300F0E492E090043BF09003B3E0A2E7400312
:1004F30002058F9003B1E0FA9003A5E06A6003025E
:10050300058F74019003A602058EE024F59004384C
:10051300F09003AEE0F91205975004D2F08002C2C6
:10052300F0A2F0E492E090043BF09003B6E0F8A36D
:10053300E0F9900434E8F0A3E9F090043974B8F0DA
:10054300A37403F0900438E0F83395E0F9E824B895
:10055300F8E93403F988828983E090043CF08882C7
:100563008983A3E0A2E7501C900433E0FA9003B11F
:10057300E06A60109003AFE054DF644170067401D9
:1005830090043DF09003B1E0900433F0C2AF120841
:10059300230207977AAF7B031207FA9003AFE0A217
:1005A300E52274F5120178EAFEEBFF906189E044DD
:1005B30060F074099061FAF074159061B2F0E49000
:1005C30061AEF0120823C2AF9003ACEEF0A3EFF0DC
:1005D300900439E4F0A3F074019003A7F090044071
:1005E30078081200F69003A8780812010575F00543
:1005F3009003AC12086CA3A3A3A3E0A424D490613A
:100603008F120649E0F8A3E0F9E8906174F0E990ED
:100613006175120649A3A3E0F8A3E0F9E8906172BB
:10062300F0E9906173F0A2AFE492E0FAC2AF9004F4
:100633002F74B8F0A37404F0EAA2E092AFD2AF79BA
:10064300007F040201D8F09003AC1208702274807A
:1006530055C6FA53BEFBE59DA2E550FAE59DA2E21D
:1006630040F400740169700774494AF5C68005E9CE
:1006730070028AC6E5C6FAE59EFBEA6B70F943BED3
:100683000422E59EA2E64003790122E9700553C6E0
:100693007F8008740169700343C680E5C6FAE59E4E
:1006A300FBEA6B70F979002279011207647902126F
:1006B3000764790312076479041207647A327B00B2
:1006C3001207CD80E37900120685E96010790112E3
:1006D30006517900120685E960031206AB79001210
:1006E300065143FE01C29043FE02C29143FE10C273
:1006F3009443FD02C28153F3FD53FDFD438F025327
:10070300F5FE53FFFE43F70143F340D2AF22C0820D
:10071300C083E91202D001033907250729072D07F2
:100723003107D2908010D291800CD2948008D2816C
:10073300740190042EF0805CC082C083E91202D061
:10074300010362074F07530757075B07C290800FE8
:10075300C291800BC2948007C281E490042EF08082
:1007630033C082C083E91202D00103970778077F61
:100773000784078B07639001E590801863900280DC
:10078300F7639010E590800C638002E58090042E5F
:10079300E06401F0D083D08222EBC313FBEA13FAA7
:1007A300EAF8EBF974FF28FA74FF39FB74006870F8
:1007B30003740069601300000000000000000000E3
:1007C3000000000000000080D72274F8120178EACC
:1007D300FEEBFFEEF8EFF974FF28FE74FF39FF74A8
:1007E3000068700374006960097AE87B0312079C50
:1007F30080E17F010201D8C082C083800DE5D98AE0
:10080300828B83F0A3AA82AB8319E970F08085C041
:1008130082C0839061A3E0C2E6F0539AFE02079779
:10082300C082C0839061A3E0D2E6F0439A0102073D
:1008330097C0E074F2120210A2AFE492E0FEC2AFDE
:10084300E5E9A2E6501990042FE07002A3E06009E5
:1008530090042F12086C120176759B0053E9BFEECA
:10086300A2E092AF7F0102026F12087022E0F8A3A8
:10087300E0F583888222C0E074F212021090043102
:10088300E07002A3E0600990043112086C12017653
:1008930080D274F7120178740912016CE0FEA3E0B0
:1008A300FFEAF8EBF980188C828D83E088828983D4
:1008B300F0A3A882A9838C828D83A3AC82AD838E9F
:1008C300088F0974FF25081E74FF3509FFE50870BA
:0A08D30002E50970D27F020201D88D
:04000005000000D324
:00000001FF
