:020000040000FA
:030000000200D328
:03004B0002059318
:10008300020A8800000080FB1200E2B900030200AC
:10009300CDE4900101783979028002F0A3D8FCD92C
:1000A300FA900239AA82AB839000E5781279018035
:1000B30015E493A3AC82AD838A828B83F0A3AA82D7
:1000C300AB838C828D83D8E9D9E712049D12008615
:1000D30075D0007581BF75100175110102008B7910
:1000E3000122FF00000000000000000000004900A2
:1000F300000000E0F608A3E0F608A3E0F608A3E09A
:10010300F622E6F008A3E6F008A3E6F008A3E6F07B
:1001130022CAC0E0E6F0A308DAFAD0E0FA222510FA
:1001230010AF08F510400215118008F510400215B4
:1001330011D2AF22C0D0251010AF08F51050020520
:10014300118008F51050020511D2AFD0D02225102E
:10015300F58210AF08F510400215118008F5104024
:10016300021511D2AF851183222510F582E43511D2
:10017300F58322E4732510C582C0E0E51134FFC581
:1001830083C0E0E510C3958224F9F8E4C5A885830C
:1001930011858210C5A8E8CEF0A3E520F0A3780866
:1001A300E608F0A3DEFAEFF0A3E58124FBF8E60806
:1001B300F0A3E608F0A30808E608F0A3E608F0A316
:1001C30015811581D0E0FED0E0F815811581E8C0D6
:1001D300E0EEC0E022851183851082E0A3FEE0A358
:1001E300F5207808E0A3F608DFFAE0A3FFE0A3C058
:1001F300E0E0A3C0E0E0A3C0E0E0A3C0E0E4C5A862
:10020300858210858311C5A8D083D08222C0D025D2
:1002130010C582C0E0E51134FFC583C0E0E510C31B
:10022300958224F310AF0885831185821080088599
:100233008311858210D2AFC8F0A3E9F0A3EAF0A33B
:10024300EBF0A37908E709F0A3D8FAECF0A3EDF0FB
:10025300A3EEF0A3EFF0A3D0E0F0A3D0E0F0A3D09F
:10026300E0F0A3E520F0A3E5F0F0A3228511838558
:100273001082E0C0E0A3E0F9A3E0FAA3E0FBA378D7
:1002830008E0F608A3DFFAE0FCA3E0FDA3E0FEA389
:10029300E0FFA3E0C0E0A3E0C0E0A3E0F5D0A3E06B
:1002A300F520A3E0A3F5F0E4C5A8858311858210AA
:1002B300C5A8D082D083D0E0F8D0E03274028000A9
:1002C300C0E0F404120151D0E012011422D083D013
:1002D30082C5F0E493A3C5F0C395F0F5F0E493A3CE
:1002E300C395F04005E5F0048001E475F002A42510
:1002F30082F582E5F03583F583E493A3C0E0E493CC
:10030300C0E022C082C0837401900104F0F8790038
:10031300E82404F582E934011203559419E99400A1
:10032300A2D265D03340E974FF90011DF002096346
:10033300C082C08378007900E8241EF582E9340185
:10034300120355941AE99400A2D265D03340E9020E
:100353000963F583E4F0E8240108E93400F9C3E80C
:1003630022C082C083E490013CF075E1EF75E1ECBB
:1003730012075912086812030602096374F3120183
:1003830078EAFEEBFF890A8C088D09C2AF90023E22
:10039300E0FAC3950A50048A0C8002890C750D009B
:1003A300780C1202BF90023FE0FCA3E0FDEEFA12CC
:1003B3000AD17402120137E5087002E50960219041
:1003C3000242E0F83395E0F9900245E0FAE8C39A77
:1003D300F8E99400F9850882850983E8F0A3E9F038
:1003E300E4900243F0D2AF90023EE0FAC3950A5084
:1003F30004EAFB8002AB0AEBFA900139E090013882
:10040300F08E828F83E0900139F08E828F83E060DB
:100413006F741A6A706A900138E0FA900139E06AE1
:100423006070900245E0FA900242E0C39AF50879C1
:100433000212093B8E828F83E0FAF83395E0F9E8E4
:100443002404F582E93401F583E508F074186A7031
:10045300067401900101F08E828F83E0F874FF2807
:100463001874FF3400F97401687001E9700B7902A4
:1004730012093B7401900102F0790212096880129B
:1004830074026A700DE0700AA3E0700674019001B3
:1004930001F01203337F060201D874FA120121120C
:1004A3000306120333740212016C7408F0A3742060
:1004B300F0740412016C7418F0740512016CE4F00A
:1004C3008510828511837421F0A37425F01208F23C
:1004D30012057A12057A75E40C43E50475DAFF75A3
:1004E300DBFFD2DED2B9C2C153AFFED2AF851082D9
:1004F300851183AA82AB831206C1E96401700312DA
:1005030008D51208687401900101F0900243E0607D
:100513000DEEFCEFFD791A7A1E7B0112037F900129
:1005230001E06030E4F0790112093B7A027B0012AA
:1005330009F779011209687A027B001209F7791A1F
:100543007C047D017AFF7BFF12056C12056C12039C
:100553006443E402900102E0640170AF53E4FD756B
:10056300E200E4F090010380A1120364791A7C0491
:100573007D017AFF7BFF22790212093B7A647B00BB
:100583001209F779021209687A647B001209F722CB
:10059300C0E0C0D0C082C083C0F0900103E004F08B
:1005A30075F00384E5F0700874019001011205CA27
:1005B300900103E0940B4004E41205CAD0F0D08309
:1005C300D082D0D0D0E032F053E4FDC2C153AFFEAD
:1005D30022C082C083120A66D2AF79017AB67B0148
:1005E300120A4D9001B6E0C2E7F064057038790550
:1005F3001206B35004D2F08002C2F0A2F0E492E0FB
:10060300900241F09001BBE0A2E740030206AB90E9
:1006130001B9E0FA90013AE06A60030206AB7401A3
:1006230090013B0206AAE024F590023EF09001B649
:10063300E0F91206B35004D2F08002C2F0A2F0E453
:1006430092E0900241F09001BEE0F8A3E0F990023D
:100653003AE8F0A3E9F090023F74C0F0A37401F00C
:1006630090023EE0F83395E0F9E824C0F8E934015C
:10067300F988828983E0900242F088828983A3E02B
:10068300A2E7501C900239E0FA9001B9E06A6010C9
:100693009001B7E054DF644170067401900243F0A7
:1006A3009001B9E0900239F0C2AF120A77020963F0
:1006B3007AB77B01120A4D9001B7E0A2E52274F5E7
:1006C300120178EAFEEBFF906189E04460F074095F
:1006D3009061FAF074159061B2F0E49061AEF0129B
:1006E3000A77C2AF900141EEF0A3EFF090023FE42E
:1006F300F0A3F0740190013CF090024678081200D8
:10070300F690013D780812010575F005900141123C
:100713000AC0A3A3A3A3E0A424D490618F1208501A
:10072300E8906174F0E9906175120859E89061727C
:10073300F0E9906173F0A2AFE492E0FAC2AF9002E5
:100743003774D4F0A37405F0EAA2E092AFD2AF7984
:10075300007F040201D874F6120178EAFEEBFF8CE5
:10076300088D09890A90013CE0700675E1EC75E19A
:10077300E3E9C394674003750A67906193E05422E9
:1007830070F8120A66740B250A900143F0120843AD
:100793006004786180027841E8900144F0748890A5
:1007A3000145F090013AE090014612085990014743
:1007B300E8F0A3E9F0900149EEF0A3EF120850909E
:1007C300014BE8F0A3E9F07A0080208A82A882E551
:1007D3000828F582E5093400F583E0C0E0E8244DFC
:1007E300F582E43401F583D0E0F00AEAC3950A40C8
:1007F300DA740A250AF97A437B01120A24120A776A
:1008030075E1E9E591A2E150FA7591FD12084360A3
:100813000FE490013BF07A4A7B021209C6E06004C0
:1008230079008002790190013CE0700675E1EF7573
:10083300E1ECE9700690013AE004F07F030201D88D
:10084300900141120AC4A3A3A3A3A3E02212086048
:10085300E0F8A3E0F922120860A3A380F3F090016B
:1008630041120AC822C082C083740190013CF07512
:10087300E1EC75E1E3020963748055C6FA53BEFBEC
:10088300E59DA2E550FAE59DA2E240F400740169FA
:10089300700774494AF5C68005E970028AC6E5C641
:1008A300FAE59EFBEA6B70F943BE0422E59EA2E6DD
:1008B3004003790122E9700553C67F8008740169FA
:1008C300700343C680E5C6FAE59EFBEA6B70F979CF
:1008D300002279011209917902120991790312090F
:1008E3009179041209917A327B001209F780E37936
:1008F300001208AFE96010790112087B7900120831
:10090300AFE960031208D5790012087B43FE01C2E8
:100913009043FE02C29143FE10C29443FD02C28182
:1009230053F3FD53FDFD438F0253F5FE53FFFE4387
:10093300F70143F340D2AF22C082C083E91202D051
:10094300010363094F09530957095B09D2908010CA
:10095300D291800CD2948008D2817401900236F037
:10096300D083D08222C082C083E91202D001038FD8
:10097300097C09800984098809C290800FC291808B
:100983000BC2948007C281E4900236F080D2C08209
:10099300C083E91202D00103C409A509AC09B10956
:1009A300B809639001E590801863900280F7639023
:1009B30010E590800C638002E580900236E06401CC
:1009C300F0809DEBC313FBEA13FAEAF8EBF974FF2B
:1009D30028FA74FF39FB74006870037400696013AC
:1009E3000000000000000000000000000000000004
:1009F3000080D72274F8120178EAFEEBFFEEF8EFDD
:100A0300F974FF28FE74FF39FF74006870037400E3
:100A13006960097AE87B031209C680E17F0102015C
:100A2300D874F712017875E1EE7591FD7C008010A2
:100A33008C08EA2508F582EB3400F583E0F5D90C40
:100A4300ECC39940EB7F020201D8C082C083800DC2
:100A5300E5D98A828B83F0A3AA82AB8319E970F06C
:100A6300020963C082C0839061A3E0C2E6F0539A97
:100A7300FE020963C082C0839061A3E0D2E6F04323
:100A83009A01020963C0E074F2120210A2AFE49269
:100A9300E0FEC2AFE5E9A2E65019900237E070022A
:100AA300A3E06009900237120AC0120176759B0019
:100AB30053E9BFEEA2E092AF7F0102026F120AC4B4
:100AC30022120AC822E0F8A3E0F58388822274F791
:100AD300120178740912016CE0FEA3E0FFEAF8EB5F
:100AE300F980188C828D83E088828983F0A3A882A1
:100AF300A9838C828D83A3AC82AD838E088F097406
:100B0300FF25081E74FF3509FFE5087002E509702B
:060B1300D27F020201D8AE
:04000005000000D324
:00000001FF
