:020000040000FA
:030000000200D328
:03004B0002055E4D
:10008300020A5300000080FB1200E2B900030200E1
:10009300CDE4900101783779028002F0A3D8FCD92E
:1000A300FA900237AA82AB839000E5781279018037
:1000B30015E493A3AC82AD838A828B83F0A3AA82D7
:1000C300AB838C828D83D8E9D9E712046B12008647
:1000D30075D0007581BF75100175110102008B7910
:1000E3000122FF00000000000000000000004900A2
:1000F300000000E0F608A3E0F608A3E0F608A3E09A
:10010300F622E6F008A3E6F008A3E6F008A3E6F07B
:1001130022CAC0E0E6F0A308DAFAD0E0FA222510FA
:1001230010AF08F510400215118008F510400215B4
:1001330011D2AF22C0D0251010AF08F51050020520
:10014300118008F51050020511D2AFD0D02225102E
:10015300F58210AF08F510400215118008F5104024
:10016300021511D2AF851183222510F582E43511D2
:10017300F58322E4732510C582C0E0E51134FFC581
:1001830083C0E0E510C3958224F9F8E4C5A885830C
:1001930011858210C5A8E8CEF0A3E520F0A3780866
:1001A300E608F0A3DEFAEFF0A3E58124FBF8E60806
:1001B300F0A3E608F0A30808E608F0A3E608F0A316
:1001C30015811581D0E0FED0E0F815811581E8C0D6
:1001D300E0EEC0E022851183851082E0A3FEE0A358
:1001E300F5207808E0A3F608DFFAE0A3FFE0A3C058
:1001F300E0E0A3C0E0E0A3C0E0E0A3C0E0E4C5A862
:10020300858210858311C5A8D083D08222C0D025D2
:1002130010C582C0E0E51134FFC583C0E0E510C31B
:10022300958224F310AF0885831185821080088599
:100233008311858210D2AFC8F0A3E9F0A3EAF0A33B
:10024300EBF0A37908E709F0A3D8FAECF0A3EDF0FB
:10025300A3EEF0A3EFF0A3D0E0F0A3D0E0F0A3D09F
:10026300E0F0A3E520F0A3E5F0F0A3228511838558
:100273001082E0C0E0A3E0F9A3E0FAA3E0FBA378D7
:1002830008E0F608A3DFFAE0FCA3E0FDA3E0FEA389
:10029300E0FFA3E0C0E0A3E0C0E0A3E0F5D0A3E06B
:1002A300F520A3E0A3F5F0E4C5A8858311858210AA
:1002B300C5A8D082D083D0E0F8D0E03274028000A9
:1002C300C0E0F404120151D0E012011422D083D013
:1002D30082C5F0E493A3C5F0C395F0F5F0E493A3CE
:1002E300C395F04005E5F0048001E475F002A42510
:1002F30082F582E5F03583F583E493A3C0E0E493CC
:10030300C0E022C082C0837433900104F078017985
:1003130000E82404F582E934011203569419E994A0
:1003230000A2D265D03340E974FF90011DF00209A9
:1003330057C082C08378007900E8241EF582E9342F
:1003430001120356941AE99400A2D265D03340E90E
:10035300020957F583E4F0E8240108E93400F9C3FE
:10036300E82274F3120178EAFEEBFF890A8C088D08
:1003730009C2AF90023CE0FAC3950A50048A0C808C
:1003830002890C750D00780C1202BF90023DE0FC4F
:10039300A3E0FDEEFA120A9C7402120137E508701D
:1003A30002E5096021900240E0F83395E0F99002FC
:1003B30043E0FAE8C39AF8E99400F98508828509CD
:1003C30083E8F0A3E9F0E4900241F0D2AF90023C5D
:1003D300E0FAC3950A5004EAFB8002AB0AEBFA8EFB
:1003E300828F83E0C394334065741A6A706090020D
:1003F30043E0FA900240E0C39AF508790212090635
:100403008E828F83E024CEFAF83395E0F9E8240452
:10041300F582E93401F583E508F074186A7006740F
:1004230001900101F08E828F83E0F874FF28187425
:10043300FF3400F97433687001E9700B7902120913
:10044300067401900102F0790212093080127402DD
:100453006A700DE0700AA3E070067401900101F068
:100463001203347F060201D874FA12012112030623
:10047300120334740212016C7408F0A37420F07434
:100483000412016C7418F0740512016CE4F0851009
:10049300828511837453F0A37425F01208BD1205ED
:1004A3004512054575E40C43E50475DAFF75DBFF7A
:1004B300D2DED2B9C2C153AFFED2AF85108285114D
:1004C30083AA82AB8312068CE9640170031208A02D
:1004D3001208337401900101F0900241E0600DEEC7
:1004E300FCEFFD791A7A1E7B01120365900101E08E
:1004F300603BE4F079011209067A087B001209C215
:1005030079011209307A087B001209C2E490013A9A
:10051300F075E1EF75E1EC791A7C047D017AFF7BDC
:10052300FF12072412083312030643E40290010268
:10053300E0640170A453E4FD75E200E4F09001036C
:10054300809679021209067A647B001209C2790245
:100553001209307A647B001209C222C0E0C0D0C005
:1005630082C083C0F0900103E004F075F00384E5DA
:10057300F070087401900101120595900103E09455
:100583000B4004E4120595D0F0D083D082D0D0D0B4
:10059300E032F053E4FDC2C153AFFE22C082C083F8
:1005A300120A31D2AF79017AB47B01120A18900191
:1005B300B4E0C2E7F064057038790512067E500492
:1005C300D2F08002C2F0A2F0E492E090023FF090F9
:1005D30001B9E0A2E740030206769001B7E0FA9082
:1005E3000138E06A6003020676740190013902065D
:1005F30075E024F590023CF09001B4E0F912067E18
:100603005004D2F08002C2F0A2F0E492E090023FE4
:10061300F09001BCE0F8A3E0F9900238E8F0A3E918
:10062300F090023D74BEF0A37401F090023CE0F838
:100633003395E0F9E824BEF8E93401F98882898327
:10064300E0900240F088828983A3E0A2E7501C90E7
:100653000237E0FA9001B7E06A60109001B5E05408
:10066300DF644170067401900241F09001B7E0909D
:100673000237F0C2AF120A420209577AB57B011260
:100683000A189001B5E0A2E52274F5120178EAFE9A
:10069300EBFF906189E04460F074099061FAF074B3
:1006A300159061B2F0E49061AEF0120A42C2AF90CD
:1006B300013FEEF0A3EFF090023DE4F0A3F07401EC
:1006C30090013AF090024478081200F690013B78CA
:1006D3000812010575F00590013F120A8BA3A3A32D
:1006E300A3E0A424D490618F12081BE8906174F0F6
:1006F300E9906175120824E8906172F0E9906173E2
:10070300F0A2AFE492E0FAC2AF900235749FF0A377
:100713007405F0EAA2E092AFD2AF79007F04020140
:10072300D874F6120178EAFEEBFF8C088D09890A6A
:1007330090013AE0700675E1EC75E1E3E9C3946773
:100743004003750A67906193E0542270F8120A31EE
:10075300740B250A900141F012080E600478618041
:10076300027841E8900142F07488900143F09001CF
:1007730038E0900144120824900145E8F0A3E9F021
:10078300900147EEF0A3EF12081B900149E8F0A394
:10079300E9F07A0080208A82A882E50828F582E5BC
:1007A300093400F583E0C0E0E8244BF582E434012A
:1007B300F583D0E0F00AEAC3950A40DA740A250A01
:1007C300F97A417B011209EF120A4275E1E9E591D9
:1007D300A2E150FA7591FD12080E600FE490013901
:1007E300F07A4A7B02120991E06004790080027971
:1007F3000190013AE0700675E1EF75E1ECE97006EE
:10080300900138E004F07F030201D890013F120AFF
:100813008FA3A3A3A3A3E02212082BE0F8A3E0F97C
:100823002212082BA3A380F3F090013F120A932214
:10083300C082C083740190013AF075E1EC75E1E385
:10084300020957748055C6FA53BEFBE59DA2E550D5
:10085300FAE59DA2E240F400740169700774494A05
:10086300F5C68005E970028AC6E5C6FAE59EFBEA8D
:100873006B70F943BE0422E59EA2E6400379012290
:10088300E9700553C67F8008740169700343C6800D
:10089300E5C6FAE59EFBEA6B70F97900227901124D
:1008A300095C790212095C790312095C7904120963
:1008B3005C7A327B001209C280E3790012087AE97C
:1008C30060107901120846790012087AE960031270
:1008D30008A0790012084643FE01C29043FE02C2FB
:1008E3009143FE10C29443FD02C28153F3FD53FDB5
:1008F300FD438F0253F5FE53FFFE43F70143F340DD
:10090300D2AF22C082C083E91202D001032E091A9A
:10091300091E0922092609D2908010D291800CD297
:10092300948008D2817401900234F08027C082C081
:1009330083E91202D001035709440948094C0950BD
:1009430009C290800FC291800BC2948007C281E4D8
:10095300900234F0D083D08222C082C083E9120295
:10096300D001038F09700977097C0983096390011A
:10097300E590801863900280F7639010E590800CF7
:10098300638002E580900234E06401F080C6EBC32B
:1009930013FBEA13FAEAF8EBF974FF28FA74FF3948
:1009A300FB740068700374006960130000000000AA
:1009B30000000000000000000000000080D7227447
:1009C300F8120178EAFEEBFFEEF8EFF974FF28FE68
:1009D30074FF39FF740068700374006960097AE872
:1009E3007B0312099180E17F010201D874F71201A0
:1009F3007875E1EE7591FD7C0080108C08EA25087E
:100A0300F582EB3400F583E0F5D90CECC39940EBA8
:100A13007F020201D8C082C083800DE5D98A828B10
:100A230083F0A3AA82AB8319E970F0020957C0824D
:100A3300C0839061A3E0C2E6F0539AFE020957C057
:100A430082C0839061A3E0D2E6F0439A0102095782
:100A5300C0E074F2120210A2AFE492E0FEC2AFE56E
:100A6300E9A2E65019900235E07002A3E060099014
:100A73000235120A8B120176759B0053E9BFEEA271
:100A8300E092AF7F0102026F120A8F22120A9322B1
:100A9300E0F8A3E0F58388822274F71201787409E1
:100AA30012016CE0FEA3E0FFEAF8EBF980188C82F8
:100AB3008D83E088828983F0A3A882A9838C828DA9
:100AC30083A3AC82AD838E088F0974FF25081E743F
:100AD300FF3509FFE5087002E50970D27F020201C4
:010AE300D83A
:04000005000000D324
:00000001FF
