:020000040000FA
:030000000200D328
:0300130002056E75
:03004B00020A7F27
:10008300020A3800000080FB1200E2B900030200FC
:10009300CDE490010178AA79048002F0A3D8FCD9B9
:1000A300FA9004AAAA82AB839000E57813790180C1
:1000B30015E493A3AC82AD838A828B83F0A3AA82D7
:1000C300AB838C828D83D8E9D9E712035212008661
:1000D30075D0007581BF75100175110102008B7910
:1000E300012248FF0000000000000000000000495A
:1000F30000000000E0F608A3E0F608A3E0F608A37A
:10010300E0F622E6F008A3E6F008A3E6F008A3E68B
:10011300F022CAC0E0E6F0A308DAFAD0E0FA22251A
:100123001010AF08F510400215118008F5104002B9
:100133001511D2AF22C0D0251010AF08F510500210
:1001430005118008F51050020511D2AFD0D0222539
:1001530010F58210AF08F510400215118008F51054
:1001630040021511D2AF851183222510F582E435A3
:1001730011F58322E4732510C582C0E0E51134FF35
:10018300C583C0E0E510C3958224F9F8E4C5A885CA
:100193008311858210C5A8E8CEF0A3E520F0A378EB
:1001A30008E608F0A3DEFAEFF0A3E58124FBF8E606
:1001B30008F0A3E608F0A30808E608F0A3E608F0B1
:1001C300A315811581D0E0FED0E0F815811581E8F3
:1001D300C0E0EEC0E022851183851082E0A3FEE03B
:1001E300A3F5207808E0A3F608DFFAE0A3FFE0A375
:1001F300C0E0E0A3C0E0E0A3C0E0E0A3C0E0E4C54A
:10020300A8858210858311C5A8D083D08222C0D04F
:100213002510C582C0E0E51134FFC583C0E0E510B9
:10022300C3958224F310AF0885831185821080085B
:10023300858311858210D2AFC8F0A3E9F0A3EAF059
:10024300A3EBF0A37908E709F0A3D8FAECF0A3ED48
:10025300F0A3EEF0A3EFF0A3D0E0F0A3D0E0F0A37F
:10026300D0E0F0A3E520F0A3E5F0F0A3228511830D
:10027300851082E0C0E0A3E0F9A3E0FAA3E0FBA3CA
:100283007808E0F608A3DFFAE0FCA3E0FDA3E0FEB4
:10029300A3E0FFA3E0C0E0A3E0C0E0A3E0F5D0A3A8
:1002A300E0F520A3E0A3F5F0E4C5A88583118582DA
:1002B30010C5A8D082D083D0E0F8D0E03274028099
:1002C30000C0E0F404120152D0E012011522D083E1
:1002D300D082C5F0E493A3C5F0C395F0F5F0E493A1
:1002E300A3C395F04005E5F0048001E475F002A492
:1002F3002582F582E5F03583F583E493A3C0E0E43A
:1003030093C0E022C082C08378007900E8248EF590
:1003130082E93403F583E4F0E8240108E93400F9C1
:10032300C3E8941BE99400A2D265D03340DE0209EE
:100333003CC082C083E49003ABF075E1EF75E1EC60
:1003430012071C7401F075E1EC75E1E302093C74DA
:10035300FA120122740212016D7408120566120169
:100363006D7418F0740512016DE4F0851082851127
:1003730083746BF0A37425F01208A279011205614E
:100383007901120556790212056179021205561296
:10039300030753C6BF53C6B8E5C643BE0475F10091
:1003A30075F33C53FF3FE5FF43868043C50BE5C52B
:1003B30043C2D8E5C2C2E9438640D2AFD2AA43863C
:1003C30040D2AFD2AA1205457003120885AA82ABA8
:1003D300831206840204B575081B75090078081298
:1003E30002C09004B1E0FCA3E0FD7A8E7B03120A05
:1003F3009C7402120138EE7001EF601F9004B4E0A8
:10040300F83395E0F99004B7E0FAE8C39AF8E99471
:1004130000F98E828F83E8F0A3E9F0E49004B5F04D
:10042300D2AF9004B0E0C3941B40489003A8E0FA15
:100433009004AAE06A703C900389E004F07D008D8B
:1004430082A882E8248EF582E43403F583E0C0E0D9
:1004530090038EE075F01BA4FAE824A0F8E434FBC3
:10046300F9EA28F582E5F039F583D0E0F00D741B45
:100473006D70CC900389E0C39418403390038DE0F2
:1004830090038AF0E4900389F0FBEB75F01BA4243E
:1004930001F582E5F03401F5837A1BE0F5C1A3A2EF
:1004A300E950FCC2E91AEA70F20B74186B70DB12A4
:1004B300030790038AE064027025740212016D74CD
:1004C3000B12056612016D7417F01208A21205458E
:1004D30060FB120532740390038DF074498028E0A9
:1004E30064037027740212016D740E120566120103
:1004F3006D7416F01208A212054560FB12053274E2
:100503000290038DF0744A9004AAF09004B5E06061
:10051300A179021205907902120915C2AF9004B0B5
:10052300E0FAC3941B40030203DA8A080203DD796D
:10053300027C8B7D037AFF7BFF120334E490038AF2
:10054300F022851082851183AA82AB83120684E987
:100553006401221209157A647B001209A72212088A
:10056300EB80F3F0A37420F0740422C0E074F21261
:100573000211C2AFE5C190038AF0790112059079A7
:1005830001120915C28BD2AF7F010202701208EB70
:100593007A0180C4C082C083120A16D2AF79017A6D
:1005A300257B041209FD900425E0C2E7F064057081
:1005B3003879051206765004D2F08002C2F0A2F018
:1005C300E492E09004B3F090042AE0A2E74003022F
:1005D300066E900428E0FA9003A9E06A600302061D
:1005E3006E74019003AA02066DE024F59004B0F046
:1005F300900425E0F91206765004D2F08002C2F08E
:10060300A2F0E492E09004B3F090042DE0F8A3E0AC
:10061300F99004ACE8F0A3E9F09004B1742FF0A3CF
:100623007404F09004B0E0F83395E0F9E8242FF86F
:10063300E93404F988828983E09004B4F0888289DC
:1006430083A3E0A2E7501C9004ABE0FA900428E0F7
:100653006A6010900426E054DF64417006740190D0
:1006630004B5F0900428E09004ABF0C2AF120A275F
:1006730002093C7A267B041209FD900426E0A2E5D8
:100683002274F5120179EAFEEBFF906189E0446080
:10069300F074099061FAF074159061B2F0E490611E
:1006A300AEF0120A27C2AF9003B0EEF0A3EFF090C2
:1006B30004B1E4F0A3F074019003ABF09004B878B4
:1006C300081200F79003AC780812010675F0059044
:1006D30003B0120A6EA3A3A3A3E0A424D490618F52
:1006E300120813E8906174F0E990617512081CE830
:1006F300906172F0E9906173F0A2AFE492E0FAC204
:10070300AF9004A67497F0A37405F0EAA2E092AF49
:10071300D2AF79007F040201D974F6120179EAFE9F
:10072300EBFF8C088D09890A9003ABE0700675E135
:10073300EC75E1E3E9C394674003750A679061933D
:10074300E0542270F8120A16740B250A9003B2F0D3
:100753001208066004786180027841E89003B3F0E0
:1007630074889003B4F09003A9E09003B512081CB9
:100773009003B6E8F0A3E9F09003B8EEF0A3EF120C
:1007830008139003BAE8F0A3E9F07A0080208A8284
:10079300A882E50828F582E5093400F583E0C0E086
:1007A300E824BCF582E43403F583D0E0F00AEAC31D
:1007B300950A40DA740A250AF97AB27B031209D43E
:1007C300120A2775E1E9E591A2E150FA7591FD124C
:1007D3000806600FE49003AAF07A4A7B02120976B6
:1007E300E060047900800279019003ABE070067544
:1007F300E1EF75E1ECE970069003A9E004F07F03F3
:100803000201D99003B0120A72A3A3A3A3A3E02207
:10081300120823E0F8A3E0F922120823A3A380F32C
:10082300F09003B0120A7622748055C6FA53BEFBC9
:10083300E59DA2E550FAE59DA2E240F4007401694A
:10084300700774494AF5C68005E970028AC6E5C691
:10085300FAE59EFBEA6B70F943BE0422E59EA2E62D
:100863004003790122E9700553C67F80087401694A
:10087300700343C680E5C6FAE59EFBEA6B70F9791F
:1008830000227901120941790212094179031209FF
:100893004179041209417A327B001209A780E37976
:1008A3000012085FE96010790112082B7900120821
:1008B3005FE96003120885790012082B43FE01C229
:1008C3009043FE02C29143FE10C29443FD02C281D3
:1008D30053F3FD53FDFD438F0253F5FE53FFFE43D8
:1008E300F70143F340D2AF22C082C083E91202D1A1
:1008F30001031309FF08030907090B09D2908010AC
:10090300D291800CD2948008D28174019004A5F016
:100913008027C082C083E91202D101033C0929095F
:100923002D0931093509C290800FC291800BC29401
:100933008007C281E49004A5F0D083D08222C082D4
:10094300C083E91202D10103740955095C096109E5
:100953006809639001E590801863900280F76390C3
:1009630010E590800C638002E5809004A5E06401AB
:10097300F080C6EBC313FBEA13FAEAF8EBF974FF52
:1009830028FA74FF39FB74006870037400696013FC
:100993000000000000000000000000000000000054
:1009A3000080D72274F8120179EAFEEBFFEEF8EF2C
:1009B300F974FF28FE74FF39FF7400687003740034
:1009C3006960097AE87B0312097680E17F010201FD
:1009D300D974F712017975E1EE7591FD7C008010F1
:1009E3008C08EA2508F582EB3400F583E0F5D90C91
:1009F300ECC39940EB7F020201D9C082C083800D12
:100A0300E5D98A828B83F0A3AA82AB8319E970F0BC
:100A130002093CC082C0839061A3E0C2E6F0539A0E
:100A2300FE02093CC082C0839061A3E0D2E6F0439A
:100A33009A0102093CC0E074F2120211A2AFE492DF
:100A4300E0FEC2AFE5E9A2E650199004A6E0700209
:100A5300A3E060099004A6120A6E120177759B0049
:100A630053E9BFEEA2E092AF02058B120A72221283
:100A73000A7622E0F8A3E0F583888222C0E074F2CC
:100A83001202119004A8E07002A3E060099004A888
:100A9300120A6E12017702058B74F7120179740939
:100AA30012016DE0FEA3E0FFEAF8EBF980188C82F7
:100AB3008D83E088828983F0A3A882A9838C828DA9
:100AC30083A3AC82AD838E088F0974FF25081E743F
:100AD300FF3509FFE5087002E50970D27F020201C4
:010AE300D939
:04000005000000D324
:00000001FF
