:020000040000FA
:030000000200D328
:03004B0002088D1B
:1000830002084800000080FB1200E2B900030200EE
:10009300CDE4900101783379048002F0A3D8FCD930
:1000A300FA900433AA82AB839000E5781279018039
:1000B30015E493A3AC82AD838A828B83F0A3AA82D7
:1000C300AB838C828D83D8E9D9E712033312008680
:1000D30075D0007581BF75100175110102008B7910
:1000E3000122FF00000000000000000000004900A2
:1000F300000000E0F608A3E0F608A3E0F608A3E09A
:10010300F622E6F008A3E6F008A3E6F008A3E6F07B
:1001130022CAC0E0E6F0A308DAFAD0E0FA222510FA
:1001230010AF08F510400215118008F510400215B4
:1001330011D2AF22C0D0251010AF08F51050020520
:10014300118008F51050020511D2AFD0D02225102E
:10015300F58210AF08F510400215118008F5104024
:10016300021511D2AF851183222510F582E43511D2
:10017300F58322E4732510C582C0E0E51134FFC581
:1001830083C0E0E510C3958224F9F8E4C5A885830C
:1001930011858210C5A8E8CEF0A3E520F0A3780866
:1001A300E608F0A3DEFAEFF0A3E58124FBF8E60806
:1001B300F0A3E608F0A30808E608F0A3E608F0A316
:1001C30015811581D0E0FED0E0F815811581E8C0D6
:1001D300E0EEC0E022851183851082E0A3FEE0A358
:1001E300F5207808E0A3F608DFFAE0A3FFE0A3C058
:1001F300E0E0A3C0E0E0A3C0E0E0A3C0E0E4C5A862
:10020300858210858311C5A8D083D08222C0D025D2
:1002130010C582C0E0E51134FFC583C0E0E510C31B
:10022300958224F310AF0885831185821080088599
:100233008311858210D2AFC8F0A3E9F0A3EAF0A33B
:10024300EBF0A37908E709F0A3D8FAECF0A3EDF0FB
:10025300A3EEF0A3EFF0A3D0E0F0A3D0E0F0A3D09F
:10026300E0F0A3E520F0A3E5F0F0A3228511838558
:100273001082E0C0E0A3E0F9A3E0FAA3E0FBA378D7
:1002830008E0F608A3DFFAE0FCA3E0FDA3E0FEA389
:10029300E0FFA3E0C0E0A3E0C0E0A3E0F5D0A3E06B
:1002A300F520A3E0A3F5F0E4C5A8858311858210AA
:1002B300C5A8D082D083D0E0F8D0E03274028000A9
:1002C300C0E0F404120151D0E012011422D083D013
:1002D30082C5F0E493A3C5F0C395F0F5F0E493A3CE
:1002E300C395F04005E5F0048001E475F002A42510
:1002F30082F582E5F03583F583E493A3C0E0E493CC
:10030300C0E022C082C08378007900E8248AF582A5
:10031300E93403F583E4F0E8240108E93400F9C380
:10032300E8941BE99400A2D265D03340DE0207AB08
:1003330074FA120121740212016C7408F0A3742080
:10034300F0740412016C7418F0740512016CE4F07B
:10035300851082851183746BF0A37425F01206DC7B
:100363001204B31204B312030653C6BF53C6B8E54F
:10037300C643BE0475F10075F33C53FF3FE5FF43ED
:10038300868043C50BE5C543C2D8E5C2C2E98510E3
:1003930082851183AA82AB831205B9E964017003D4
:1003A3001206BF74019003A7F075E1EC75E1E30257
:1003B300044075081B7902120725741B65087044F5
:1003C3009003A4E0644A703C900389E004F07D004C
:1003D3008D82A882E8248AF582E43403F583E0C0A1
:1003E300E090038AE075F01BA4FAE824A0F8E43453
:1003F300FBF9EA28F582E5F039F583D0E0F00D74D6
:100403001B6D70CC900389E0C394184028E4F0FB83
:10041300EB75F01BA42401F582E5F03401F5837A32
:100423001AE0F5C1A3A2E950FCC2E91AEA70F20B83
:1004330074186B70DB120306790212074F90043DA8
:10044300E060F5C2AF900438E0FAC3941B50048A0D
:1004530008800375081B75090078081202BF900411
:1004630039E0FCA3E0FD7A8A7B031208A974021227
:100473000137EE7001EF601F90043CE0F83395E024
:10048300F990043FE0FAE8C39AF8E99400F98E8200
:100493008F83E8F0A3E9F0E490043DF0D2AF900439
:1004A30038E0FAC3941B40030203B58A080203B879
:1004B30079021207257A647B001207E17902120799
:1004C3004F7A647B001207E122C082C083120826A0
:1004D300D2AF79017AAE7B0312080E9003AEE0C26D
:1004E300E7F06405703879051205AB5004D2F0804B
:1004F30002C2F0A2F0E492E090043BF09003B3E078
:10050300A2E740030205A39003B1E0FA9003A5E03C
:100513006A60030205A374019003A60205A2E02406
:10052300F5900438F09003AEE0F91205AB5004D215
:10053300F08002C2F0A2F0E492E090043BF090035A
:10054300B6E0F8A3E0F9900434E8F0A3E9F09004EE
:100553003974B8F0A37403F0900438E0F83395E0ED
:10056300F9E824B8F8E93403F988828983E0900430
:100573003CF088828983A3E0A2E7501C900433E017
:10058300FA9003B1E06A60109003AFE054DF644176
:100593007006740190043DF09003B1E0900433F0D1
:1005A300C2AF1208370207AB7AAF7B0312080E9073
:1005B30003AFE0A2E52274F5120178EAFEEBFF90A7
:1005C3006189E04460F074099061FAF074159061F8
:1005D300B2F0E49061AEF0120837C2AF9003ACEE14
:1005E300F0A3EFF0900439E4F0A3F074019003A7B3
:1005F300F090044078081200F69003A878081201DE
:100603000575F0059003AC120880A3A3A3A3E0A48F
:1006130024D490618F12065DE0F8A3E0F9E89061BD
:1006230074F0E990617512065DA3A3E0F8A3E0F905
:10063300E8906172F0E9906173F0A2AFE492E0FA9E
:10064300C2AF90042F74CCF0A37404F0EAA2E0923A
:10065300AFD2AF79007F040201D8F09003AC120847
:100663008422748055C6FA53BEFBE59DA2E550FA79
:10067300E59DA2E240F400740169700774494AF5EC
:10068300C68005E970028AC6E5C6FAE59EFBEA6BF9
:1006930070F943BE0422E59EA2E64003790122E9F4
:1006A300700553C67F8008740169700343C680E5F3
:1006B300C6FAE59EFBEA6B70F9790022790112070D
:1006C3007879021207787903120778790412077888
:1006D3007A327B001207E180E37900120699E96020
:1006E3001079011206657900120699E96003120672
:1006F300BF790012066543FE01C29043FE02C29118
:1007030043FE10C29443FD02C28153F3FD53FDFD2A
:10071300438F0253F5FE53FFFE43F70143F340D2E9
:10072300AF22C082C083E91202D001034D0739070B
:100733003D0741074507D2908010D291800CD29497
:100743008008D281740190042EF0805CC082C08343
:10075300E91202D001037607630767076B076F0788
:10076300C290800FC291800BC2948007C281E49033
:10077300042EF08033C082C083E91202D00103ABA0
:10078300078C07930798079F07639001E5908018EC
:1007930063900280F7639010E590800C638002E51C
:1007A3008090042EE06401F0D083D08222EBC31347
:1007B300FBEA13FAEAF8EBF974FF28FA74FF39FB42
:1007C3007400687003740069601300000000000087
:1007D300000000000000000000000080D72274F831
:1007E300120178EAFEEBFFEEF8EFF974FF28FE74CE
:1007F300FF39FF740068700374006960097AE87B4D
:10080300031207B080E17F010201D8C082C0838058
:100813000DE5D98A828B83F0A3AA82AB8319E97091
:10082300F08085C082C0839061A3E0C2E6F0539A52
:10083300FE0207ABC082C0839061A3E0D2E6F0431F
:100843009A010207ABC0E074F2120210A2AFE49265
:10085300E0FEC2AFE5E9A2E6501990042FE0700272
:10086300A3E0600990042F120880120176759B00A3
:1008730053E9BFEEA2E092AF7F0102026F12088438
:1008830022E0F8A3E0F583888222C0E074F212022A
:1008930010900431E07002A3E06009900431120863
:1008A3008012017680D274F7120178740912016CF8
:1008B300E0FEA3E0FFEAF8EBF980188C828D83E079
:1008C30088828983F0A3A882A9838C828D83A3ACB9
:1008D30082AD838E088F0974FF25081E74FF3509C6
:0E08E300FFE5087002E50970D27F020201D81D
:04000005000000D324
:00000001FF
