:020000040000FA
:030000000200D328
:030013000205A340
:03004B00020AB4F2
:10008300020A6D00000080FB1200E2B900030200C7
:10009300CDE490010178AA79048002F0A3D8FCD9B9
:1000A300FA9004AAAA82AB839000E57813790180C1
:1000B30015E493A3AC82AD838A828B83F0A3AA82D7
:1000C300AB838C828D83D8E9D9E712035212008661
:1000D30075D0007581BF75100175110102008B7910
:1000E300012248FF0000000000000000000000495A
:1000F30000000000E0F608A3E0F608A3E0F608A37A
:10010300E0F622E6F008A3E6F008A3E6F008A3E68B
:10011300F022CAC0E0E6F0A308DAFAD0E0FA22251A
:100123001010AF08F510400215118008F5104002B9
:100133001511D2AF22C0D0251010AF08F510500210
:1001430005118008F51050020511D2AFD0D0222539
:1001530010F58210AF08F510400215118008F51054
:1001630040021511D2AF851183222510F582E435A3
:1001730011F58322E4732510C582C0E0E51134FF35
:10018300C583C0E0E510C3958224F9F8E4C5A885CA
:100193008311858210C5A8E8CEF0A3E520F0A378EB
:1001A30008E608F0A3DEFAEFF0A3E58124FBF8E606
:1001B30008F0A3E608F0A30808E608F0A3E608F0B1
:1001C300A315811581D0E0FED0E0F815811581E8F3
:1001D300C0E0EEC0E022851183851082E0A3FEE03B
:1001E300A3F5207808E0A3F608DFFAE0A3FFE0A375
:1001F300C0E0E0A3C0E0E0A3C0E0E0A3C0E0E4C54A
:10020300A8858210858311C5A8D083D08222C0D04F
:100213002510C582C0E0E51134FFC583C0E0E510B9
:10022300C3958224F310AF0885831185821080085B
:10023300858311858210D2AFC8F0A3E9F0A3EAF059
:10024300A3EBF0A37908E709F0A3D8FAECF0A3ED48
:10025300F0A3EEF0A3EFF0A3D0E0F0A3D0E0F0A37F
:10026300D0E0F0A3E520F0A3E5F0F0A3228511830D
:10027300851082E0C0E0A3E0F9A3E0FAA3E0FBA3CA
:100283007808E0F608A3DFFAE0FCA3E0FDA3E0FEB4
:10029300A3E0FFA3E0C0E0A3E0C0E0A3E0F5D0A3A8
:1002A300E0F520A3E0A3F5F0E4C5A88583118582DA
:1002B30010C5A8D082D083D0E0F8D0E03274028099
:1002C30000C0E0F404120152D0E012011522D083E1
:1002D300D082C5F0E493A3C5F0C395F0F5F0E493A1
:1002E300A3C395F04005E5F0048001E475F002A492
:1002F3002582F582E5F03583F583E493A3C0E0E43A
:1003030093C0E022C082C08378007900E8248EF590
:1003130082E93403F583E4F0E8240108E93400F9C1
:10032300C3E8941BE99400A2D265D03340DE0209EE
:1003330071C082C083E49003ABF075E1EF75E1EC2B
:100343001207517401F075E1EC75E1E30209717470
:10035300FA120122740212016D12059912016D74D1
:1003630018F0740512016DE4F08510828511837411
:100373006BF0A37425F01208D77901120594790163
:10038300120578790212059479021205781203078F
:1003930053C6BF53C6B8E5C643BE0475F10075F333
:1003A3003C53FF3FE5FF43868043C50BE5C543C28E
:1003B300D8E5C2C2E9438640D2AFD2AA438640D22F
:1003C300AFD2AA12058370031208BAAA82AB8312B2
:1003D30006B90204B875081B75090078081202C033
:1003E3009004B1E0FCA3E0FD7A8E7B03120AD17482
:1003F30002120138EE7001EF601F9004B4E0F8338D
:1004030095E0F99004B7E0FAE8C39AF8E99400F9A3
:100413008E828F83E8F0A3E9F0E49004B5F0D2AFC5
:100423009004B0E0C3941B40489003A8E0FA900402
:10043300AAE06A703C900389E004F07D008D82A8F5
:1004430082E8248EF582E43403F583E0C0E0900370
:100453008EE075F01BA4FAE824A0F8E434FBF9EA73
:1004630028F582E5F039F583D0E0F00D741B6D704B
:10047300CC790112094A900389E0C3941840339060
:10048300038DE090038AF0E4900389F0FBEB75F0B1
:100493001BA42401F582E5F03401F5837A1BE0F512
:1004A300C1A3A2E950FCC2E91AEA70F20B74186BFB
:1004B30070DB120307790212092090038AE06401BA
:1004C3007023740212016D12059912016D7416F0F6
:1004D3001208D712058360FB120565740290038D21
:1004E300F074488052E064027025740212016D7446
:1004F3000B12059B12016D7414F01208D7120583B9
:1005030060FB120565740390038DF074498028E045
:1005130064037027740212016D740E12059B12019D
:100523006D7410F01208D712058360FB1205657411
:100533000190038DF0744A9004AAF0790212094ADB
:100543009004B5E070030204B87901120920C2AF28
:100553009004B0E0FAC3941B40030203D88A080254
:1005630003DB79027C8B7D037AFF7BFF120334E488
:1005730090038AF02212094A7A647B001209DC2272
:10058300851082851183AA82AB831206B9E96401BF
:100593002212092080E27408F0A37420F07404226C
:1005A300C0E074F2120211C2AFE5C190038AF07980
:1005B300011209207A017B001209DC790112094A30
:1005C300C28BD2AF7F01020270C082C083120A4B7A
:1005D300D2AF79017A257B04120A32900425E0C256
:1005E300E7F06405703879051206AB5004D2F08049
:1005F30002C2F0A2F0E492E09004B3F090042AE087
:10060300A2E740030206A3900428E0FA9003A9E0BE
:100613006A60030206A374019003AA0206A2E024FF
:10062300F59004B0F0900425E0F91206AB5004D223
:10063300F08002C2F0A2F0E492E09004B3F09004E0
:100643002DE0F8A3E0F99004ACE8F0A3E9F09004FE
:10065300B1742FF0A37404F09004B0E0F83395E084
:10066300F9E8242FF8E93404F988828983E09004B7
:10067300B4F088828983A3E0A2E7501C9004ABE026
:10068300FA900428E06A6010900426E054DF644185
:10069300700674019004B5F0900428E09004ABF068
:1006A300C2AF120A5C0209717A267B04120A3290E5
:1006B3000426E0A2E52274F5120179EAFEEBFF902D
:1006C3006189E04460F074099061FAF074159061F7
:1006D300B2F0E49061AEF0120A5CC2AF9003B0EEE8
:1006E300F0A3EFF09004B1E4F0A3F074019003AB36
:1006F300F09004B878081200F79003AC7808120160
:100703000675F0059003B0120AA3A3A3A3A3E0A464
:1007130024D490618F120848E8906174F0E99061E5
:1007230075120851E8906172F0E9906173F0A2AF1D
:10073300E492E0FAC2AF9004A674CCF0A37405F07F
:10074300EAA2E092AFD2AF79007F040201D974F636
:10075300120179EAFEEBFF8C088D09890A9003AB3D
:10076300E0700675E1EC75E1E3E9C3946740037556
:100773000A67906193E0542270F8120A4B740B25B8
:100783000A9003B2F012083B60047861800278415A
:10079300E89003B3F074889003B4F09003A9E09059
:1007A30003B51208519003B6E8F0A3E9F09003B83B
:1007B300EEF0A3EF1208489003BAE8F0A3E9F07A49
:1007C3000080208A82A882E50828F582E5093400A2
:1007D300F583E0C0E0E824BCF582E43403F583D07C
:1007E300E0F00AEAC3950A40DA740A250AF97AB2F4
:1007F3007B03120A09120A5C75E1E9E591A2E15053
:10080300FA7591FD12083B600FE49003AAF07A4A4F
:100813007B021209ABE06004790080027901900346
:10082300ABE0700675E1EF75E1ECE970069003A9A2
:10083300E004F07F030201D99003B0120AA7A3A337
:10084300A3A3A3E022120858E0F8A3E0F9221208B8
:1008530058A3A380F3F09003B0120AAB227480551F
:10086300C6FA53BEFBE59DA2E550FAE59DA2E24020
:10087300F400740169700774494AF5C68005E9708C
:10088300028AC6E5C6FAE59EFBEA6B70F943BE042D
:1008930022E59EA2E64003790122E9700553C67F53
:1008A3008008740169700343C680E5C6FAE59EFBC0
:1008B300EA6B70F97900227901120976790212093B
:1008C30076790312097679041209767A327B00125B
:1008D30009DC80E37900120894E9601079011208B9
:1008E300607900120894E960031208BA79001208CB
:1008F3006043FE01C29043FE02C29143FE10C294C4
:1009030043FD02C28153F3FD53FDFD438F0253F5B3
:10091300FE53FFFE43F70143F340D2AF22C082C030
:1009230083E91202D101034809340938093C09401B
:1009330009D2908010D291800CD2948008D2817415
:10094300019004A5F08027C082C083E91202D1017F
:100953000371095E09620966096A09C290800FC2C0
:1009630091800BC2948007C281E49004A5F0D083E8
:10097300D08222C082C083E91202D10103A9098A6D
:1009830009910996099D09639001E5908018639088
:100993000280F7639010E590800C638002E58090FD
:1009A30004A5E06401F080C6EBC313FBEA13FAEA83
:1009B300F8EBF974FF28FA74FF39FB7400687003CD
:1009C30074006960130000000000000000000000D4
:1009D30000000000000080D72274F8120179EAFEBB
:1009E300EBFFEEF8EFF974FF28FE74FF39FF740094
:1009F30068700374006960097AE87B031209AB80AD
:100A0300E17F010201D974F712017975E1EE759165
:100A1300FD7C0080108C08EA2508F582EB3400F594
:100A230083E0F5D90CECC39940EB7F020201D9C0F6
:100A330082C083800DE5D98A828B83F0A3AA82AB1F
:100A43008319E970F0020971C082C0839061A3E049
:100A5300C2E6F0539AFE020971C082C0839061A37B
:100A6300E0D2E6F0439A01020971C0E074F2120287
:100A730011A2AFE492E0FEC2AFE5E9A2E6501990FD
:100A830004A6E07002A3E060099004A6120AA31270
:100A93000177759B0053E9BFEEA2E092AF0205C751
:100AA300120AA722120AAB22E0F8A3E0F583888298
:100AB30022C0E074F21202119004A8E07002A3E0D5
:100AC30060099004A8120AA31201770205C774F7FC
:100AD300120179740912016DE0FEA3E0FFEAF8EB5D
:100AE300F980188C828D83E088828983F0A3A882A1
:100AF300A9838C828D83A3AC82AD838E088F097406
:100B0300FF25081E74FF3509FFE5087002E509702B
:060B1300D27F020201D9AD
:04000005000000D324
:00000001FF
