:020000040000FA
:030000000200D328
:03004B0002064862
:10008300020B4F00000080FB1200E2B900030200E4
:10009300CDE490010178C179048002F0A3D8FCD9A2
:1000A300FA9004C1AA82AB839000E57812790180AB
:1000B30015E493A3AC82AD838A828B83F0A3AA82D7
:1000C300AB838C828D83D8E9D9E71204E1120086D1
:1000D30075D0007581BF75100175110102008B7910
:1000E3000122FF00000000000000000000004900A2
:1000F300000000E0F608A3E0F608A3E0F608A3E09A
:10010300F622E6F008A3E6F008A3E6F008A3E6F07B
:1001130022CAC0E0E6F0A308DAFAD0E0FA222510FA
:1001230010AF08F510400215118008F510400215B4
:1001330011D2AF22C0D0251010AF08F51050020520
:10014300118008F51050020511D2AFD0D02225102E
:10015300F58210AF08F510400215118008F5104024
:10016300021511D2AF851183222510F582E43511D2
:10017300F58322E4732510C582C0E0E51134FFC581
:1001830083C0E0E510C3958224F9F8E4C5A885830C
:1001930011858210C5A8E8CEF0A3E520F0A3780866
:1001A300E608F0A3DEFAEFF0A3E58124FBF8E60806
:1001B300F0A3E608F0A30808E608F0A3E608F0A316
:1001C30015811581D0E0FED0E0F815811581E8C0D6
:1001D300E0EEC0E022851183851082E0A3FEE0A358
:1001E300F5207808E0A3F608DFFAE0A3FFE0A3C058
:1001F300E0E0A3C0E0E0A3C0E0E0A3C0E0E4C5A862
:10020300858210858311C5A8D083D08222C0D025D2
:1002130010C582C0E0E51134FFC583C0E0E510C31B
:10022300958224F310AF0885831185821080088599
:100233008311858210D2AFC8F0A3E9F0A3EAF0A33B
:10024300EBF0A37908E709F0A3D8FAECF0A3EDF0FB
:10025300A3EEF0A3EFF0A3D0E0F0A3D0E0F0A3D09F
:10026300E0F0A3E520F0A3E5F0F0A3228511838558
:100273001082E0C0E0A3E0F9A3E0FAA3E0FBA378D7
:1002830008E0F608A3DFFAE0FCA3E0FDA3E0FEA389
:10029300E0FFA3E0C0E0A3E0C0E0A3E0F5D0A3E06B
:1002A300F520A3E0A3F5F0E4C5A8858311858210AA
:1002B300C5A8D082D083D0E0F8D0E03274028000A9
:1002C300C0E0F404120151D0E012011422D083D013
:1002D30082C5F0E493A3C5F0C395F0F5F0E493A3CE
:1002E300C395F04005E5F0048001E475F002A42510
:1002F30082F582E5F03583F583E493A3C0E0E493CC
:10030300C0E022C082C0837418900104F0780179A0
:1003130000E82404F582E934011203569419E994A0
:1003230000A2D265D03340E974FF90011DF0020AA8
:100333002AC082C08378007900E8241EF582E9345C
:1003430001120356941AE99400A2D265D03340E90E
:10035300020A2AF583E4F0E8240108E93400F9C32A
:10036300E82274F3120178EAFEEBFF890A8C088D08
:1003730009C2AF9004C6E0FAC3950A50048A0C8000
:1003830002890C750D00780C1202BF9004C7E0FCC3
:10039300A3E0FDEEFA120B987402120137E5087020
:1003A30002E50960219004CAE0F83395E0F990046E
:1003B300CDE0FAE8C39AF8E99400F9850882850943
:1003C30083E8F0A3E9F0E49004CBF0D2AF9004C645
:1003D300E0FAC3950A5004EAFB8002AB0AEBFA90F9
:1003E3000139E09001381204DA9001391204DA700D
:1003F300030204CD741A6A60030204CD900138E04D
:10040300FA900139E06A70030204CD7902120A02FC
:100413009004CDE0FA9004CAE0C39AF5088E828F67
:1004230083E0F5097D008D82AA82EE2AF582EF34FE
:1004330000F583E0C0E0E509F83395E0F9E875F0ED
:100443001BA4F8ACF075F01BE9A42CF9EA241FFAFD
:10045300E43401FBE82AF582E93BF583D0E0F00DB3
:10046300741A6D70C1E509F83395E0F9E824A7F52E
:1004730082E93403F583E5081204DA64177006741D
:1004830001900103F08E828F83E0F874FF281874C3
:10049300FF3400F97418687001E9601108741728B3
:1004A300F8E43400F97418687001E9700974019074
:1004B3000101F0120306E509F83395E0F9E8240495
:1004C300F582E93401F583E508F07902120A2F1267
:1004D30003347F060201D8F08E828F83E02274FA00
:1004E300120121E4900103F0120306120334740293
:1004F30012016C7408F0A37420F0740412016C747C
:1005030018F0740512016CE4F08510828511837470
:1005130038F0A37425F01209B912062B12062B75B5
:10052300E40C43E50475DAFF75DBFFD2DED2B9C212
:10053300C153AFFED2AF7B00EB75F01BA42454F57F
:1005430082E5F03401F5837418F00B6B70EA7B00DD
:1005530074012BC0E0EB75F01BA4243AF582E5F09F
:100563003401F583D0E0F00B74186B70E37B00EB80
:1005730075F01BA42453F582E5F03401F58374FF71
:10058300F00B74186B70E8851082851183AA82AB17
:1005930083120776E96401700312099C12091D9006
:1005A30004CBE0600DEEFCEFFD791A7A1E7B01129D
:1005B3000365900103E060467901120A027A021290
:1005C300063D7A027B00120ABE75080012093079D3
:1005D3001BE50889F0A4243AFCE5F03401FD7A39DF
:1005E3007B2512080E12091D05087418650870DCB6
:1005F30012061712061712061743E402E4F09001DD
:1006030001E06401709953E4FD75E200E4F09001A8
:1006130002F0808B120930791A7C047D017AFF7B0A
:10062300FF12080E12091D227901120A027A6412BE
:10063300063D7A647B00120ABE227B00120ABE7951
:1006430001120A2F22C0E0C0D0C082C083C0F09044
:100653000102E004F075F00384E5F0700874019082
:10066300010312067F900102E0940A4004E412069B
:100673007FD0F0D083D082D0D0D0E032F053E4FDED
:10068300C2C153AFFE22C082C083120B2DD2AF79F9
:10069300017A3E7B04120B1490043EE0C2E7F0643F
:1006A30005703879051207685004D2F08002C2F051
:1006B300A2F0E492E09004C9F0900443E0A2E74082
:1006C30003020760900441E0FA9003C2E06A60030A
:1006D30002076074019003C302075FE024F59004EE
:1006E300C6F090043EE0F91207685004D2F080028D
:1006F300C2F0A2F0E492E09004C9F0900446E0F85E
:10070300A3E0F99004C2E8F0A3E9F09004C77448A9
:10071300F0A37404F09004C6E0F83395E0F9E824FC
:1007230048F8E93404F988828983E09004CAF088A0
:10073300828983A3E0A2E7501C9004C1E0FA9004ED
:1007430041E06A601090043FE054DF644170067436
:10075300019004CBF0900441E09004C1F0C2AF12C9
:100763000B3E020A2A7A3F7B04120B1490043FE0EB
:10077300A2E52274F5120178EAFEEBFF906189E0AD
:100783004460F074099061FAF074159061B2F0E47A
:100793009061AEF0120B3EC2AF9003C9EEF0A3EF2F
:1007A300F09004C7E4F0A3F074019003C4F0900444
:1007B300CE78081200F69003C5780812010575F08B
:1007C300059003C9120B87A3A3A3A3E0A424D49089
:1007D300618F120905E8906174F0E990617512095F
:1007E3000EE8906172F0E9906173F0A2AFE492E0D9
:1007F300FAC2AF9004BF7489F0A37406F0EAA2E0D2
:1008030092AFD2AF79007F040201D874F612017857
:10081300EAFEEBFF8C088D09890A9003C4E0700699
:1008230075E1EC75E1E3E9C394674003750A6790EA
:100833006193E0542270F8120B2D740B250A900378
:10084300CBF01208F86004786180027841E89003E5
:10085300CCF074889003CDF09003C2E09003CE12E5
:10086300090E9003CFE8F0A3E9F09003D1EEF0A3D3
:10087300EF1209059003D3E8F0A3E9F07A00802092
:100883008A82A882E50828F582E5093400F583E029
:10089300C0E0E824D5F582E43403F583D0E0F00A20
:1008A300EAC3950A40DA740A250AF97ACB7B031264
:1008B3000AEB120B3E75E1E9E591A2E150FA75915D
:1008C300FD1208F8600FE49003C3F07A4A7B02122A
:1008D3000A8DE060047900800279019003C4E0701E
:1008E3000675E1EF75E1ECE970069003C2E004F0F0
:1008F3007F030201D89003C9120B8BA3A3A3A3A365
:10090300E022120915E0F8A3E0F922120915A3A3C6
:1009130080F3F09003C9120B8F22C082C08374014D
:100923009003C4F075E1EC75E1E3020A2AC082C0CA
:1009330083E49003C4F075E1EF75E1EC020A2A74D5
:100943008055C6FA53BEFBE59DA2E550FAE59DA28C
:10095300E240F400740169700774494AF5C68005E2
:10096300E970028AC6E5C6FAE59EFBEA6B70F943B5
:10097300BE0422E59EA2E64003790122E9700553F5
:10098300C67F8008740169700343C680E5C6FAE533
:100993009EFBEA6B70F97900227901120A587902F9
:1009A300120A587903120A587904120A587A327BC8
:1009B30000120ABE80E37900120976E9601079011A
:1009C3001209427900120976E9600312099C790041
:1009D30012094243FE01C29043FE02C29143FE103C
:1009E300C29443FD02C28153F3FD53FDFD438F02C5
:1009F30053F5FE53FFFE43F70143F340D2AF22C04A
:100A030082C083E91202D001032A0A160A1A0A1EB7
:100A13000A220AD2908010D291800CD2948008D2FC
:100A23008174019004BEF0D083D08222C082C0833F
:100A3300E91202D00103560A430A470A4B0A4F0A36
:100A4300C290800FC291800BC2948007C281E49050
:100A530004BEF080D2C082C083E91202D001038BAE
:100A63000A6C0A730A780A7F0A639001E59080187A
:100A730063900280F7639010E590800C638002E539
:100A8300809004BEE06401F0809DEBC313FBEA1386
:100A9300FAEAF8EBF974FF28FA74FF39FB7400687B
:100AA3007003740069601300000000000000000080
:100AB300000000000000000080D72274F8120178C3
:100AC300EAFEEBFFEEF8EFF974FF28FE74FF39FF3F
:100AD300740068700374006960097AE87B03120A82
:100AE3008D80E17F010201D874F712017875E1EE80
:100AF3007591FD7C0080108C08EA2508F582EB34A3
:100B030000F583E0F5D90CECC39940EB7F020201B9
:100B1300D8C082C083800DE5D98A828B83F0A3AAD3
:100B230082AB8319E970F0020A2AC082C083906104
:100B3300A3E0C2E6F0539AFE020A2AC082C0839061
:100B430061A3E0D2E6F0439A01020A2AC0E074F2FC
:100B5300120210A2AFE492E0FEC2AFE5E9A2E650B2
:100B6300199004BFE07002A3E060099004BF120B68
:100B730087120176759B0053E9BFEEA2E092AF7F27
:100B83000102026F120B8B22120B8F22E0F8A3E0FB
:100B9300F58388822274F7120178740912016CE0DC
:100BA300FEA3E0FFEAF8EBF980188C828D83E088DE
:100BB300828983F0A3A882A9838C828D83A3AC82CC
:100BC300AD838E088F0974FF25081E74FF3509FF56
:0D0BD300E5087002E50970D27F020201D82A
:04000005000000D324
:00000001FF
