:020000040000FA
:030000000200D328
:03004B0002062882
:10008300020B2F00000080FB1200E2B90003020004
:10009300CDE490010178BF79048002F0A3D8FCD9A4
:1000A300FA9004BFAA82AB839000E57812790180AD
:1000B30015E493A3AC82AD838A828B83F0A3AA82D7
:1000C300AB838C828D83D8E9D9E71204C9120086E9
:1000D30075D0007581BF75100175110102008B7910
:1000E3000122FF00000000000000000000004900A2
:1000F300000000E0F608A3E0F608A3E0F608A3E09A
:10010300F622E6F008A3E6F008A3E6F008A3E6F07B
:1001130022CAC0E0E6F0A308DAFAD0E0FA222510FA
:1001230010AF08F510400215118008F510400215B4
:1001330011D2AF22C0D0251010AF08F51050020520
:10014300118008F51050020511D2AFD0D02225102E
:10015300F58210AF08F510400215118008F5104024
:10016300021511D2AF851183222510F582E43511D2
:10017300F58322E4732510C582C0E0E51134FFC581
:1001830083C0E0E510C3958224F9F8E4C5A885830C
:1001930011858210C5A8E8CEF0A3E520F0A3780866
:1001A300E608F0A3DEFAEFF0A3E58124FBF8E60806
:1001B300F0A3E608F0A30808E608F0A3E608F0A316
:1001C30015811581D0E0FED0E0F815811581E8C0D6
:1001D300E0EEC0E022851183851082E0A3FEE0A358
:1001E300F5207808E0A3F608DFFAE0A3FFE0A3C058
:1001F300E0E0A3C0E0E0A3C0E0E0A3C0E0E4C5A862
:10020300858210858311C5A8D083D08222C0D025D2
:1002130010C582C0E0E51134FFC583C0E0E510C31B
:10022300958224F310AF0885831185821080088599
:100233008311858210D2AFC8F0A3E9F0A3EAF0A33B
:10024300EBF0A37908E709F0A3D8FAECF0A3EDF0FB
:10025300A3EEF0A3EFF0A3D0E0F0A3D0E0F0A3D09F
:10026300E0F0A3E520F0A3E5F0F0A3228511838558
:100273001082E0C0E0A3E0F9A3E0FAA3E0FBA378D7
:1002830008E0F608A3DFFAE0FCA3E0FDA3E0FEA389
:10029300E0FFA3E0C0E0A3E0C0E0A3E0F5D0A3E06B
:1002A300F520A3E0A3F5F0E4C5A8858311858210AA
:1002B300C5A8D082D083D0E0F8D0E03274028000A9
:1002C300C0E0F404120151D0E012011422D083D013
:1002D30082C5F0E493A3C5F0C395F0F5F0E493A3CE
:1002E300C395F04005E5F0048001E475F002A42510
:1002F30082F582E5F03583F583E493A3C0E0E493CC
:10030300C0E022C082C083744A900104F07801796E
:1003130000E82404F582E934011203569419E994A0
:1003230000A2D265D03340E974FF90011DF0020AA8
:100333000AC082C08378007900E8241EF582E9347C
:1003430001120356941AE99400A2D265D03340E90E
:10035300020A0AF583E4F0E8240108E93400F9C34A
:10036300E82274F3120178EAFEEBFF890A8C088D08
:1003730009C2AF9004C4E0FAC3950A50048A0C8002
:1003830002890C750D00780C1202BF9004C5E0FCC5
:10039300A3E0FDEEFA120B787402120137E5087040
:1003A30002E50960219004C8E0F83395E0F9900470
:1003B300CBE0FAE8C39AF8E99400F9850882850945
:1003C30083E8F0A3E9F0E49004C9F0D2AF9004C449
:1003D300E0FAC3950A5004EAFB8002AB0A8B087962
:1003E300021209E28E828F83E0C394335003020426
:1003F300BC741A650860030204BC9004CBE0FA9055
:1004030004C8E0C39AF5088E828F83E024CEF509F1
:100413007D008D82AA82EE2AF582EF3400F583E017
:10042300C0E0E509F83395E0F9E875F01BA4F8ACF2
:10043300F075F01BE9A42CF9EA241DFAE43401FB5E
:10044300E82AF582E93BF583D0E0F00D741A6D706C
:10045300C1E509F83395E0F9E824A5F582E9340309
:10046300F583E508F08E828F83E06449700674019A
:10047300900103F08E828F83E0F874FF281874FFD5
:100483003400F9744A687001E9601108741728F898
:10049300E43400F9744A687001E970097401900149
:1004A30001F0120306E509F83395E0F9E82404F5B1
:1004B30082E93401F583E508F07902120A0F120389
:1004C300347F060201D874FA120121E4900103F08B
:1004D300120306120334740212016C7408F0A3743D
:1004E30020F0740412016C7418F0740512016CE4AA
:1004F300F0851082851183746AF0A37425F01209C4
:100503009912060B12060B75E40C43E50475DAFF2A
:1005130075DBFFD2DED2B9C2C153AFFED2AF7B00CF
:10052300EB75F01BA42452F582E5F03401F58374D6
:100533004AF00B74186B70E87B0074332BC0E0EB4C
:1005430075F01BA42438F582E5F03401F583D0E07F
:10055300F00B74186B70E37B00EB75F01BA4245154
:10056300F582E5F03401F58374FFF00B74186B70BA
:10057300E8851082851183AA82AB83120756E9644A
:1005830001700312097C1208FD9004C9E0600DEEAE
:10059300FCEFFD791A7A1E7B01120365900103E0DB
:1005A300605079011209E27A0812061D7A087B006D
:1005B300120A9E750800120910791BE50889F0A438
:1005C3002438FCE5F03401FD7A6B7B251207EE122B
:1005D30008FD05087418650870DC120910791A7C87
:1005E300047D017AFF7BFF1207EE1208FD43E4024C
:1005F300E4F0900101E06401708F53E4FD75E200C3
:10060300E4F0900102F0808179011209E27A641228
:10061300061D7A647B00120A9E227B00120A9E79D1
:1006230001120A0F22C0E0C0D0C082C083C0F09084
:100633000102E004F075F00384E5F07008740190A2
:10064300010312065F900102E0940A4004E41206DB
:100653005FD0F0D083D082D0D0D0E032F053E4FD2D
:10066300C2C153AFFE22C082C083120B0DD2AF7939
:10067300017A3C7B04120AF490043CE0C2E7F06484
:1006830005703879051207485004D2F08002C2F091
:10069300A2F0E492E09004C7F0900441E0A2E740A6
:1006A3000302074090043FE0FA9003C0E06A60034E
:1006B30002074074019003C102073FE024F5900450
:1006C300C4F090043CE0F91207485004D2F08002D1
:1006D300C2F0A2F0E492E09004C7F0900444E0F882
:1006E300A3E0F99004C0E8F0A3E9F09004C57446D0
:1006F300F0A37404F09004C4E0F83395E0F9E8241F
:1007030046F8E93404F988828983E09004C8F088C4
:10071300828983A3E0A2E7501C9004BFE0FA90040F
:100723003FE06A601090043DE054DF64417006745A
:10073300019004C9F090043FE09004BFF0C2AF12EF
:100743000B1E020A0A7A3D7B04120AF490043DE070
:10075300A2E52274F5120178EAFEEBFF906189E0CD
:100763004460F074099061FAF074159061B2F0E49A
:100773009061AEF0120B1EC2AF9003C7EEF0A3EF71
:10078300F09004C5E4F0A3F074019003C2F0900468
:10079300CC78081200F69003C3780812010575F0AF
:1007A300059003C7120B67A3A3A3A3E0A424D490CB
:1007B300618F1208E5E8906174F0E99061751208A1
:1007C300EEE8906172F0E9906173F0A2AFE492E019
:1007D300FAC2AF9004BD7469F0A37406F0EAA2E014
:1007E30092AFD2AF79007F040201D874F612017878
:1007F300EAFEEBFF8C088D09890A9003C2E07006BC
:1008030075E1EC75E1E3E9C394674003750A67900A
:100813006193E0542270F8120B0D740B250A9003B8
:10082300C9F01208D86004786180027841E8900327
:10083300CAF074889003CBF09003C0E09003CC120D
:1008430008EE9003CDE8F0A3E9F09003CFEEF0A318
:10085300EF1208E59003D1E8F0A3E9F07A008020D5
:100863008A82A882E50828F582E5093400F583E049
:10087300C0E0E824D3F582E43403F583D0E0F00A42
:10088300EAC3950A40DA740A250AF97AC97B031286
:100893000ACB120B1E75E1E9E591A2E150FA7591BD
:1008A300FD1208D8600FE49003C1F07A4A7B02126C
:1008B3000A6DE060047900800279019003C2E07060
:1008C3000675E1EF75E1ECE970069003C0E004F012
:1008D3007F030201D89003C7120B6BA3A3A3A3A3A7
:1008E300E0221208F5E0F8A3E0F9221208F5A3A329
:1008F30080F3F09003C7120B6F22C082C083740190
:100903009003C2F075E1EC75E1E3020A0AC082C00C
:1009130083E49003C2F075E1EF75E1EC020A0A7417
:100923008055C6FA53BEFBE59DA2E550FAE59DA2AC
:10093300E240F400740169700774494AF5C6800502
:10094300E970028AC6E5C6FAE59EFBEA6B70F943D5
:10095300BE0422E59EA2E64003790122E970055315
:10096300C67F8008740169700343C680E5C6FAE553
:100973009EFBEA6B70F97900227901120A38790239
:10098300120A387903120A387904120A387A327B48
:1009930000120A9E80E37900120956E9601079017A
:1009A3001209227900120956E9600312097C7900C1
:1009B30012092243FE01C29043FE02C29143FE107C
:1009C300C29443FD02C28153F3FD53FDFD438F02E5
:1009D30053F5FE53FFFE43F70143F340D2AF22C06A
:1009E30082C083E91202D001030A0AF609FA09FE5A
:1009F30009020AD2908010D291800CD2948008D23E
:100A03008174019004BCF0D083D08222C082C08361
:100A1300E91202D00103360A230A270A2B0A2F0AF6
:100A2300C290800FC291800BC2948007C281E49070
:100A330004BCF080D2C082C083E91202D001036BF0
:100A43000A4C0A530A580A5F0A639001E59080181A
:100A530063900280F7639010E590800C638002E559
:100A6300809004BCE06401F0809DEBC313FBEA13A8
:100A7300FAEAF8EBF974FF28FA74FF39FB7400689B
:100A830070037400696013000000000000000000A0
:100A9300000000000000000080D72274F8120178E3
:100AA300EAFEEBFFEEF8EFF974FF28FE74FF39FF5F
:100AB300740068700374006960097AE87B03120AA2
:100AC3006D80E17F010201D874F712017875E1EEC0
:100AD3007591FD7C0080108C08EA2508F582EB34C3
:100AE30000F583E0F5D90CECC39940EB7F020201DA
:100AF300D8C082C083800DE5D98A828B83F0A3AAF4
:100B030082AB8319E970F0020A0AC082C083906144
:100B1300A3E0C2E6F0539AFE020A0AC082C08390A1
:100B230061A3E0D2E6F0439A01020A0AC0E074F23C
:100B3300120210A2AFE492E0FEC2AFE5E9A2E650D2
:100B4300199004BDE07002A3E060099004BD120B8C
:100B530067120176759B0053E9BFEEA2E092AF7F67
:100B63000102026F120B6B22120B6F22E0F8A3E05B
:100B7300F58388822274F7120178740912016CE0FC
:100B8300FEA3E0FFEAF8EBF980188C828D83E088FE
:100B9300828983F0A3A882A9838C828D83A3AC82EC
:100BA300AD838E088F0974FF25081E74FF3509FF76
:0D0BB300E5087002E50970D27F020201D84A
:04000005000000D324
:00000001FF
